{
  "contractName": "Dex",
  "abi": [
    {
      "anonymous": false,
      "inputs": [
        {
          "indexed": true,
          "internalType": "address",
          "name": "previousOwner",
          "type": "address"
        },
        {
          "indexed": true,
          "internalType": "address",
          "name": "newOwner",
          "type": "address"
        }
      ],
      "name": "OwnershipTransferred",
      "type": "event"
    },
    {
      "inputs": [
        {
          "internalType": "bytes32",
          "name": "ticker",
          "type": "bytes32"
        },
        {
          "internalType": "address",
          "name": "tokenAddress",
          "type": "address"
        }
      ],
      "name": "addTokenSupport",
      "outputs": [],
      "stateMutability": "nonpayable",
      "type": "function"
    },
    {
      "inputs": [
        {
          "internalType": "address",
          "name": "",
          "type": "address"
        },
        {
          "internalType": "bytes32",
          "name": "",
          "type": "bytes32"
        }
      ],
      "name": "balances",
      "outputs": [
        {
          "internalType": "uint256",
          "name": "",
          "type": "uint256"
        }
      ],
      "stateMutability": "view",
      "type": "function"
    },
    {
      "inputs": [
        {
          "internalType": "uint256",
          "name": "amount",
          "type": "uint256"
        },
        {
          "internalType": "bytes32",
          "name": "ticker",
          "type": "bytes32"
        }
      ],
      "name": "deposit",
      "outputs": [],
      "stateMutability": "nonpayable",
      "type": "function"
    },
    {
      "inputs": [],
      "name": "depositEth",
      "outputs": [],
      "stateMutability": "payable",
      "type": "function"
    },
    {
      "inputs": [],
      "name": "nextOrderId",
      "outputs": [
        {
          "internalType": "uint256",
          "name": "",
          "type": "uint256"
        }
      ],
      "stateMutability": "view",
      "type": "function"
    },
    {
      "inputs": [
        {
          "internalType": "bytes32",
          "name": "",
          "type": "bytes32"
        },
        {
          "internalType": "uint256",
          "name": "",
          "type": "uint256"
        },
        {
          "internalType": "uint256",
          "name": "",
          "type": "uint256"
        }
      ],
      "name": "orderBook",
      "outputs": [
        {
          "internalType": "uint256",
          "name": "id",
          "type": "uint256"
        },
        {
          "internalType": "address",
          "name": "trader",
          "type": "address"
        },
        {
          "internalType": "enum Dex.Side",
          "name": "side",
          "type": "uint8"
        },
        {
          "internalType": "bytes32",
          "name": "ticker",
          "type": "bytes32"
        },
        {
          "internalType": "uint256",
          "name": "amount",
          "type": "uint256"
        },
        {
          "internalType": "uint256",
          "name": "price",
          "type": "uint256"
        }
      ],
      "stateMutability": "view",
      "type": "function"
    },
    {
      "inputs": [],
      "name": "owner",
      "outputs": [
        {
          "internalType": "address",
          "name": "",
          "type": "address"
        }
      ],
      "stateMutability": "view",
      "type": "function"
    },
    {
      "inputs": [],
      "name": "renounceOwnership",
      "outputs": [],
      "stateMutability": "nonpayable",
      "type": "function"
    },
    {
      "inputs": [
        {
          "internalType": "uint256",
          "name": "",
          "type": "uint256"
        }
      ],
      "name": "tokenList",
      "outputs": [
        {
          "internalType": "bytes32",
          "name": "",
          "type": "bytes32"
        }
      ],
      "stateMutability": "view",
      "type": "function"
    },
    {
      "inputs": [
        {
          "internalType": "bytes32",
          "name": "",
          "type": "bytes32"
        }
      ],
      "name": "tokenMapping",
      "outputs": [
        {
          "internalType": "bytes32",
          "name": "ticker",
          "type": "bytes32"
        },
        {
          "internalType": "address",
          "name": "tokenAddress",
          "type": "address"
        }
      ],
      "stateMutability": "view",
      "type": "function"
    },
    {
      "inputs": [
        {
          "internalType": "address",
          "name": "newOwner",
          "type": "address"
        }
      ],
      "name": "transferOwnership",
      "outputs": [],
      "stateMutability": "nonpayable",
      "type": "function"
    },
    {
      "inputs": [
        {
          "internalType": "uint256",
          "name": "amount",
          "type": "uint256"
        },
        {
          "internalType": "bytes32",
          "name": "ticker",
          "type": "bytes32"
        }
      ],
      "name": "withdraw",
      "outputs": [],
      "stateMutability": "nonpayable",
      "type": "function"
    },
    {
      "inputs": [
        {
          "internalType": "uint256",
          "name": "amount",
          "type": "uint256"
        }
      ],
      "name": "withdrawEth",
      "outputs": [],
      "stateMutability": "nonpayable",
      "type": "function"
    },
    {
      "inputs": [
        {
          "internalType": "bytes32",
          "name": "_ticker",
          "type": "bytes32"
        },
        {
          "internalType": "enum Dex.Side",
          "name": "_side",
          "type": "uint8"
        }
      ],
      "name": "getOrderBook",
      "outputs": [
        {
          "components": [
            {
              "internalType": "uint256",
              "name": "id",
              "type": "uint256"
            },
            {
              "internalType": "address",
              "name": "trader",
              "type": "address"
            },
            {
              "internalType": "enum Dex.Side",
              "name": "side",
              "type": "uint8"
            },
            {
              "internalType": "bytes32",
              "name": "ticker",
              "type": "bytes32"
            },
            {
              "internalType": "uint256",
              "name": "amount",
              "type": "uint256"
            },
            {
              "internalType": "uint256",
              "name": "price",
              "type": "uint256"
            }
          ],
          "internalType": "struct Dex.Order[]",
          "name": "",
          "type": "tuple[]"
        }
      ],
      "stateMutability": "view",
      "type": "function"
    },
    {
      "inputs": [
        {
          "internalType": "enum Dex.Side",
          "name": "_side",
          "type": "uint8"
        },
        {
          "internalType": "bytes32",
          "name": "_ticker",
          "type": "bytes32"
        },
        {
          "internalType": "uint256",
          "name": "_amount",
          "type": "uint256"
        },
        {
          "internalType": "uint256",
          "name": "_price",
          "type": "uint256"
        }
      ],
      "name": "createLimitOrder",
      "outputs": [],
      "stateMutability": "nonpayable",
      "type": "function"
    }
  ],
  "bytecode": "0x608060405234801561001057600080fd5b5060006100216100c460201b60201c565b9050806000806101000a81548173ffffffffffffffffffffffffffffffffffffffff021916908373ffffffffffffffffffffffffffffffffffffffff1602179055508073ffffffffffffffffffffffffffffffffffffffff16600073ffffffffffffffffffffffffffffffffffffffff167f8be0079c531659141344cd1fd0a4f28419497f9722a3daafe3b4186f6b6457e060405160405180910390a3506100cc565b600033905090565b612850806100db6000396000f3fe6080604052600436106100e85760003560e01c80638c20f9e91161008a578063ba58ea6811610059578063ba58ea68146102d9578063c311d04914610316578063c9630cb01461033f578063f2fde38b14610368576100e8565b80638c20f9e91461021f5780638da5cb5b146102485780639ead722214610273578063a8d2021a146102b0576100e8565b8063439370b1116100c6578063439370b114610197578063667cb4ba146101a15780636f3b62f9146101df578063715018a614610208576100e8565b80630bb431b6146100ed5780631f14df691461012f5780632a58b3301461016c575b600080fd5b3480156100f957600080fd5b50610114600480360381019061010f919061220f565b610391565b604051610126969594939291906125eb565b60405180910390f35b34801561013b57600080fd5b5061015660048036038101906101519190612132565b610424565b60405161016391906125d0565b60405180910390f35b34801561017857600080fd5b50610181610449565b60405161018e91906125d0565b60405180910390f35b61019f61044f565b005b3480156101ad57600080fd5b506101c860048036038101906101c3919061216e565b610548565b6040516101d6929190612567565b60405180910390f35b3480156101eb57600080fd5b506102066004803603810190610201919061225e565b61058c565b005b34801561021457600080fd5b5061021d610fd3565b005b34801561022b57600080fd5b5061024660048036038101906102419190612197565b611140565b005b34801561025457600080fd5b5061025d6112ae565b60405161026a919061250f565b60405180910390f35b34801561027f57600080fd5b5061029a600480360381019061029591906122c1565b6112d7565b6040516102a7919061254c565b60405180910390f35b3480156102bc57600080fd5b506102d760048036038101906102d291906122ea565b6112fb565b005b3480156102e557600080fd5b5061030060048036038101906102fb91906121d3565b611600565b60405161030d919061252a565b60405180910390f35b34801561032257600080fd5b5061033d600480360381019061033891906122c1565b61173a565b005b34801561034b57600080fd5b50610366600480360381019061036191906122ea565b611963565b005b34801561037457600080fd5b5061038f600480360381019061038a9190612109565b611d2a565b005b600560205282600052604060002060205281600052604060002081815481106103b957600080fd5b906000526020600020906005020160009250925050508060000154908060010160009054906101000a900473ffffffffffffffffffffffffffffffffffffffff16908060010160149054906101000a900460ff16908060020154908060030154908060040154905086565b6003602052816000526040600020602052806000526040600020600091509150505481565b60045481565b6104d234600360003373ffffffffffffffffffffffffffffffffffffffff1673ffffffffffffffffffffffffffffffffffffffff16815260200190815260200160002060007f4554480000000000000000000000000000000000000000000000000000000000815260200190815260200160002054611f1c90919063ffffffff16565b600360003373ffffffffffffffffffffffffffffffffffffffff1673ffffffffffffffffffffffffffffffffffffffff16815260200190815260200160002060007f4554480000000000000000000000000000000000000000000000000000000000815260200190815260200160002081905550565b60016020528060005260406000206000915090508060000154908060010160009054906101000a900473ffffffffffffffffffffffffffffffffffffffff16905082565b6000600181111561059957fe5b8460018111156105a557fe5b1415610671576105be8183611fa490919063ffffffff16565b600360003373ffffffffffffffffffffffffffffffffffffffff1673ffffffffffffffffffffffffffffffffffffffff16815260200190815260200160002060007f45544800000000000000000000000000000000000000000000000000000000008152602001908152602001600020541015610670576040517f08c379a000000000000000000000000000000000000000000000000000000000815260040161066790612590565b60405180910390fd5b5b60018081111561067d57fe5b84600181111561068957fe5b14156107235781600360003373ffffffffffffffffffffffffffffffffffffffff1673ffffffffffffffffffffffffffffffffffffffff1681526020019081526020016000206000858152602001908152602001600020541015610722576040517f08c379a0000000000000000000000000000000000000000000000000000000008152600401610719906125b0565b60405180910390fd5b5b600060056000858152602001908152602001600020600086600181111561074657fe5b81526020019081526020016000209050806040518060c0016040528060045481526020013373ffffffffffffffffffffffffffffffffffffffff16815260200187600181111561079257fe5b81526020018681526020018581526020018481525090806001815401808255809150506001900390600052602060002090600502016000909190919091506000820151816000015560208201518160010160006101000a81548173ffffffffffffffffffffffffffffffffffffffff021916908373ffffffffffffffffffffffffffffffffffffffff16021790555060408201518160010160146101000a81548160ff0219169083600181111561084557fe5b0217905550606082015181600201556080820151816003015560a0820151816004015550506000600181111561087757fe5b85600181111561088357fe5b1415610c14576000818054905090505b6000811115610c0e578160018203815481106108ab57fe5b9060005260206000209060050201600401548282815481106108c957fe5b906000526020600020906005020160040154118061092357508160018203815481106108f157fe5b90600052602060002090600502016004015482828154811061090f57fe5b906000526020600020906005020160040154145b1561092d57610c0e565b81600182038154811061093c57fe5b90600052602060002090600502016004015482828154811061095a57fe5b9060005260206000209060050201600401541015610c0057600082828154811061098057fe5b90600052602060002090600502016040518060c0016040529081600082015481526020016001820160009054906101000a900473ffffffffffffffffffffffffffffffffffffffff1673ffffffffffffffffffffffffffffffffffffffff1673ffffffffffffffffffffffffffffffffffffffff1681526020016001820160149054906101000a900460ff166001811115610a1757fe5b6001811115610a2257fe5b815260200160028201548152602001600382015481526020016004820154815250509050826001830381548110610a5557fe5b9060005260206000209060050201838381548110610a6f57fe5b9060005260206000209060050201600082015481600001556001820160009054906101000a900473ffffffffffffffffffffffffffffffffffffffff168160010160006101000a81548173ffffffffffffffffffffffffffffffffffffffff021916908373ffffffffffffffffffffffffffffffffffffffff1602179055506001820160149054906101000a900460ff168160010160146101000a81548160ff02191690836001811115610b1f57fe5b021790555060028201548160020155600382015481600301556004820154816004015590505080836001840381548110610b5557fe5b90600052602060002090600502016000820151816000015560208201518160010160006101000a81548173ffffffffffffffffffffffffffffffffffffffff021916908373ffffffffffffffffffffffffffffffffffffffff16021790555060408201518160010160146101000a81548160ff02191690836001811115610bd857fe5b0217905550606082015181600201556080820151816003015560a08201518160040155905050505b808060019003915050610893565b50610fba565b600180811115610c2057fe5b856001811115610c2c57fe5b1415610fb9576000818054905090505b6000811115610fb757816001820381548110610c5457fe5b906000526020600020906005020160040154828281548110610c7257fe5b9060005260206000209060050201600401541180610ccc5750816001820381548110610c9a57fe5b906000526020600020906005020160040154828281548110610cb857fe5b906000526020600020906005020160040154145b15610cd657610fb7565b816001820381548110610ce557fe5b906000526020600020906005020160040154828281548110610d0357fe5b9060005260206000209060050201600401541015610fa9576000828281548110610d2957fe5b90600052602060002090600502016040518060c0016040529081600082015481526020016001820160009054906101000a900473ffffffffffffffffffffffffffffffffffffffff1673ffffffffffffffffffffffffffffffffffffffff1673ffffffffffffffffffffffffffffffffffffffff1681526020016001820160149054906101000a900460ff166001811115610dc057fe5b6001811115610dcb57fe5b815260200160028201548152602001600382015481526020016004820154815250509050826001830381548110610dfe57fe5b9060005260206000209060050201838381548110610e1857fe5b9060005260206000209060050201600082015481600001556001820160009054906101000a900473ffffffffffffffffffffffffffffffffffffffff168160010160006101000a81548173ffffffffffffffffffffffffffffffffffffffff021916908373ffffffffffffffffffffffffffffffffffffffff1602179055506001820160149054906101000a900460ff168160010160146101000a81548160ff02191690836001811115610ec857fe5b021790555060028201548160020155600382015481600301556004820154816004015590505080836001840381548110610efe57fe5b90600052602060002090600502016000820151816000015560208201518160010160006101000a81548173ffffffffffffffffffffffffffffffffffffffff021916908373ffffffffffffffffffffffffffffffffffffffff16021790555060408201518160010160146101000a81548160ff02191690836001811115610f8157fe5b0217905550606082015181600201556080820151816003015560a08201518160040155905050505b808060019003915050610c3c565b505b5b6004600081548092919060010191905055505050505050565b610fdb61202a565b73ffffffffffffffffffffffffffffffffffffffff16610ff96112ae565b73ffffffffffffffffffffffffffffffffffffffff1614611082576040517f08c379a00000000000000000000000000000000000000000000000000000000081526004018080602001828103825260208152602001807f4f776e61626c653a2063616c6c6572206973206e6f7420746865206f776e657281525060200191505060405180910390fd5b600073ffffffffffffffffffffffffffffffffffffffff1660008054906101000a900473ffffffffffffffffffffffffffffffffffffffff1673ffffffffffffffffffffffffffffffffffffffff167f8be0079c531659141344cd1fd0a4f28419497f9722a3daafe3b4186f6b6457e060405160405180910390a360008060006101000a81548173ffffffffffffffffffffffffffffffffffffffff021916908373ffffffffffffffffffffffffffffffffffffffff160217905550565b61114861202a565b73ffffffffffffffffffffffffffffffffffffffff166111666112ae565b73ffffffffffffffffffffffffffffffffffffffff16146111ef576040517f08c379a00000000000000000000000000000000000000000000000000000000081526004018080602001828103825260208152602001807f4f776e61626c653a2063616c6c6572206973206e6f7420746865206f776e657281525060200191505060405180910390fd5b60405180604001604052808381526020018273ffffffffffffffffffffffffffffffffffffffff16815250600160008481526020019081526020016000206000820151816000015560208201518160010160006101000a81548173ffffffffffffffffffffffffffffffffffffffff021916908373ffffffffffffffffffffffffffffffffffffffff16021790555090505060028290806001815401808255809150506001900390600052602060002001600090919091909150555050565b60008060009054906101000a900473ffffffffffffffffffffffffffffffffffffffff16905090565b600281815481106112e757600080fd5b906000526020600020016000915090505481565b80600073ffffffffffffffffffffffffffffffffffffffff166001600083815260200190815260200160002060010160009054906101000a900473ffffffffffffffffffffffffffffffffffffffff1673ffffffffffffffffffffffffffffffffffffffff1614156113b8576040517f08c379a00000000000000000000000000000000000000000000000000000000081526004018080602001828103825260238152602001806127f86023913960400191505060405180910390fd5b82600360003373ffffffffffffffffffffffffffffffffffffffff1673ffffffffffffffffffffffffffffffffffffffff1681526020019081526020016000206000848152602001908152602001600020541015611461576040517f08c379a00000000000000000000000000000000000000000000000000000000081526004018080602001828103825260238152602001806127b46023913960400191505060405180910390fd5b6114c483600360003373ffffffffffffffffffffffffffffffffffffffff1673ffffffffffffffffffffffffffffffffffffffff16815260200190815260200160002060008581526020019081526020016000205461203290919063ffffffff16565b600360003373ffffffffffffffffffffffffffffffffffffffff1673ffffffffffffffffffffffffffffffffffffffff1681526020019081526020016000206000848152602001908152602001600020819055506001600083815260200190815260200160002060010160009054906101000a900473ffffffffffffffffffffffffffffffffffffffff1673ffffffffffffffffffffffffffffffffffffffff1663a9059cbb33856040518363ffffffff1660e01b8152600401808373ffffffffffffffffffffffffffffffffffffffff16815260200182815260200192505050602060405180830381600087803b1580156115bf57600080fd5b505af11580156115d3573d6000803e3d6000fd5b505050506040513d60208110156115e957600080fd5b810190808051906020019092919050505050505050565b606060056000848152602001908152602001600020600083600181111561162357fe5b8152602001908152602001600020805480602002602001604051908101604052809291908181526020016000905b8282101561172e57838290600052602060002090600502016040518060c0016040529081600082015481526020016001820160009054906101000a900473ffffffffffffffffffffffffffffffffffffffff1673ffffffffffffffffffffffffffffffffffffffff1673ffffffffffffffffffffffffffffffffffffffff1681526020016001820160149054906101000a900460ff1660018111156116f257fe5b60018111156116fd57fe5b8152602001600282015481526020016003820154815260200160048201548152505081526020019060010190611651565b50505050905092915050565b80600360003373ffffffffffffffffffffffffffffffffffffffff1673ffffffffffffffffffffffffffffffffffffffff16815260200190815260200160002060007f45544800000000000000000000000000000000000000000000000000000000008152602001908152602001600020541015611803576040517f08c379a00000000000000000000000000000000000000000000000000000000081526004018080602001828103825260218152602001806127936021913960400191505060405180910390fd5b61188681600360003373ffffffffffffffffffffffffffffffffffffffff1673ffffffffffffffffffffffffffffffffffffffff16815260200190815260200160002060007f455448000000000000000000000000000000000000000000000000000000000081526020019081526020016000205461203290919063ffffffff16565b600360003373ffffffffffffffffffffffffffffffffffffffff1673ffffffffffffffffffffffffffffffffffffffff16815260200190815260200160002060007f45544800000000000000000000000000000000000000000000000000000000008152602001908152602001600020819055503373ffffffffffffffffffffffffffffffffffffffff168160405180600001905060006040518083038185875af1925050503d8060008114611958576040519150601f19603f3d011682016040523d82523d6000602084013e61195d565b606091505b50505050565b80600073ffffffffffffffffffffffffffffffffffffffff166001600083815260200190815260200160002060010160009054906101000a900473ffffffffffffffffffffffffffffffffffffffff1673ffffffffffffffffffffffffffffffffffffffff161415611a20576040517f08c379a00000000000000000000000000000000000000000000000000000000081526004018080602001828103825260238152602001806127f86023913960400191505060405180910390fd5b826001600084815260200190815260200160002060010160009054906101000a900473ffffffffffffffffffffffffffffffffffffffff1673ffffffffffffffffffffffffffffffffffffffff166370a08231336040518263ffffffff1660e01b8152600401808273ffffffffffffffffffffffffffffffffffffffff16815260200191505060206040518083038186803b158015611abe57600080fd5b505afa158015611ad2573d6000803e3d6000fd5b505050506040513d6020811015611ae857600080fd5b81019080805190602001909291905050501015611b6d576040517f08c379a00000000000000000000000000000000000000000000000000000000081526004018080602001828103825260208152602001807f496e73756666696369656e742062616c616e636520666f72206465706f73697481525060200191505060405180910390fd5b611bd083600360003373ffffffffffffffffffffffffffffffffffffffff1673ffffffffffffffffffffffffffffffffffffffff168152602001908152602001600020600085815260200190815260200160002054611f1c90919063ffffffff16565b600360003373ffffffffffffffffffffffffffffffffffffffff1673ffffffffffffffffffffffffffffffffffffffff1681526020019081526020016000206000848152602001908152602001600020819055506001600083815260200190815260200160002060010160009054906101000a900473ffffffffffffffffffffffffffffffffffffffff1673ffffffffffffffffffffffffffffffffffffffff166323b872dd3330866040518463ffffffff1660e01b8152600401808473ffffffffffffffffffffffffffffffffffffffff1681526020018373ffffffffffffffffffffffffffffffffffffffff1681526020018281526020019350505050602060405180830381600087803b158015611ce957600080fd5b505af1158015611cfd573d6000803e3d6000fd5b505050506040513d6020811015611d1357600080fd5b810190808051906020019092919050505050505050565b611d3261202a565b73ffffffffffffffffffffffffffffffffffffffff16611d506112ae565b73ffffffffffffffffffffffffffffffffffffffff1614611dd9576040517f08c379a00000000000000000000000000000000000000000000000000000000081526004018080602001828103825260208152602001807f4f776e61626c653a2063616c6c6572206973206e6f7420746865206f776e657281525060200191505060405180910390fd5b600073ffffffffffffffffffffffffffffffffffffffff168173ffffffffffffffffffffffffffffffffffffffff161415611e5f576040517f08c379a000000000000000000000000000000000000000000000000000000000815260040180806020018281038252602681526020018061276d6026913960400191505060405180910390fd5b8073ffffffffffffffffffffffffffffffffffffffff1660008054906101000a900473ffffffffffffffffffffffffffffffffffffffff1673ffffffffffffffffffffffffffffffffffffffff167f8be0079c531659141344cd1fd0a4f28419497f9722a3daafe3b4186f6b6457e060405160405180910390a3806000806101000a81548173ffffffffffffffffffffffffffffffffffffffff021916908373ffffffffffffffffffffffffffffffffffffffff16021790555050565b600080828401905083811015611f9a576040517f08c379a000000000000000000000000000000000000000000000000000000000815260040180806020018281038252601b8152602001807f536166654d6174683a206164646974696f6e206f766572666c6f77000000000081525060200191505060405180910390fd5b8091505092915050565b600080831415611fb75760009050612024565b6000828402905082848281611fc857fe5b041461201f576040517f08c379a00000000000000000000000000000000000000000000000000000000081526004018080602001828103825260218152602001806127d76021913960400191505060405180910390fd5b809150505b92915050565b600033905090565b6000828211156120aa576040517f08c379a000000000000000000000000000000000000000000000000000000000815260040180806020018281038252601e8152602001807f536166654d6174683a207375627472616374696f6e206f766572666c6f77000081525060200191505060405180910390fd5b818303905092915050565b6000813590506120c481612717565b92915050565b6000813590506120d98161272e565b92915050565b6000813590506120ee81612745565b92915050565b60008135905061210381612755565b92915050565b60006020828403121561211b57600080fd5b6000612129848285016120b5565b91505092915050565b6000806040838503121561214557600080fd5b6000612153858286016120b5565b9250506020612164858286016120ca565b9150509250929050565b60006020828403121561218057600080fd5b600061218e848285016120ca565b91505092915050565b600080604083850312156121aa57600080fd5b60006121b8858286016120ca565b92505060206121c9858286016120b5565b9150509250929050565b600080604083850312156121e657600080fd5b60006121f4858286016120ca565b9250506020612205858286016120df565b9150509250929050565b60008060006060848603121561222457600080fd5b6000612232868287016120ca565b9350506020612243868287016120f4565b9250506040612254868287016120f4565b9150509250925092565b6000806000806080858703121561227457600080fd5b6000612282878288016120df565b9450506020612293878288016120ca565b93505060406122a4878288016120f4565b92505060606122b5878288016120f4565b91505092959194509250565b6000602082840312156122d357600080fd5b60006122e1848285016120f4565b91505092915050565b600080604083850312156122fd57600080fd5b600061230b858286016120f4565b925050602061231c858286016120ca565b9150509250929050565b60006123328383612476565b60c08301905092915050565b61234781612696565b82525050565b61235681612696565b82525050565b60006123678261265c565b6123718185612674565b935061237c8361264c565b8060005b838110156123ad5781516123948882612326565b975061239f83612667565b925050600181019050612380565b5085935050505092915050565b6123c3816126a8565b82525050565b6123d2816126a8565b82525050565b6123e1816126ef565b82525050565b6123f0816126ef565b82525050565b6000612403601983612685565b91507f4554482062616c616e63657320696e73756666696369656e74000000000000006000830152602082019050919050565b6000612443601b83612685565b91507f546f6b656e2062616c616e63657320696e73756666696369656e7400000000006000830152602082019050919050565b60c08201600082015161248c60008501826124f1565b50602082015161249f602085018261233e565b5060408201516124b260408501826123d8565b5060608201516124c560608501826123ba565b5060808201516124d860808501826124f1565b5060a08201516124eb60a08501826124f1565b50505050565b6124fa816126e5565b82525050565b612509816126e5565b82525050565b6000602082019050612524600083018461234d565b92915050565b60006020820190508181036000830152612544818461235c565b905092915050565b600060208201905061256160008301846123c9565b92915050565b600060408201905061257c60008301856123c9565b612589602083018461234d565b9392505050565b600060208201905081810360008301526125a9816123f6565b9050919050565b600060208201905081810360008301526125c981612436565b9050919050565b60006020820190506125e56000830184612500565b92915050565b600060c0820190506126006000830189612500565b61260d602083018861234d565b61261a60408301876123e7565b61262760608301866123c9565b6126346080830185612500565b61264160a0830184612500565b979650505050505050565b6000819050602082019050919050565b600081519050919050565b6000602082019050919050565b600082825260208201905092915050565b600082825260208201905092915050565b60006126a1826126c5565b9050919050565b6000819050919050565b60008190506126c082612703565b919050565b600073ffffffffffffffffffffffffffffffffffffffff82169050919050565b6000819050919050565b60006126fa826126b2565b9050919050565bfe5b6002811061271457612713612701565b5b50565b61272081612696565b811461272b57600080fd5b50565b612737816126a8565b811461274257600080fd5b50565b6002811061275257600080fd5b50565b61275e816126e5565b811461276957600080fd5b5056fe4f776e61626c653a206e6577206f776e657220697320746865207a65726f2061646472657373496e7375666669656e742062616c616e636520666f72207769746864726177616c496e73756666696369656e742062616c616e636520666f72207769746864726177616c536166654d6174683a206d756c7469706c69636174696f6e206f766572666c6f77546f6b656e206973206e6f7420737570706f7274656420617420746869732074696d65a2646970667358221220de70a49b62366dcce5e117f5c357172a83370fc38ac7d3c4552b37103e10fa4564736f6c63430007060033",
  "immutableReferences": {},
  "source": "// SPDX-License-Identifier: MIT\r\npragma solidity >= 0.6.0 < 0.8.0;\r\npragma experimental ABIEncoderV2;\r\nimport \"./Wallet.sol\";\r\n\r\ncontract Dex is Wallet {\r\n    \r\n    using SafeMath for uint256;\r\n\r\n    enum Side {\r\n        BUY,\r\n        SELL\r\n    }\r\n\r\n    struct Order {\r\n        uint id;\r\n        address trader;\r\n        Side side;\r\n        bytes32 ticker;\r\n        uint amount;\r\n        uint price;\r\n    }\r\n\r\n    uint public nextOrderId;\r\n\r\n    //Ticker => Side => Orderbook\r\n    mapping(bytes32 => mapping(uint => Order[])) public orderBook;\r\n\r\n    function getOrderBook(bytes32 _ticker, Side _side) view public returns(Order[] memory){\r\n        return orderBook[_ticker][uint(_side)];\r\n    }\r\n\r\n    function createLimitOrder(Side _side, bytes32 _ticker, uint _amount, uint _price) public {\r\n    //Perform checks as required in tests \r\n        if(_side == Side.BUY){\r\n            require(balances[msg.sender]['ETH'] >= _amount.mul(_price), \"ETH balances insufficient\");\r\n        }\r\n        if(_side == Side.SELL){\r\n            require(balances[msg.sender][_ticker] >= _amount, \"Token balances insufficient\" );\r\n        }\r\n        \r\n        Order[] storage orders = orderBook[_ticker][uint(_side)];\r\n        orders.push(\r\n            Order(nextOrderId, msg.sender, _side, _ticker, _amount, _price)\r\n        );\r\n        //Bubble sort algorithm \r\n        if(_side == Side.BUY){\r\n            for (uint256 index = orders.length; index > 0; index--) {\r\n                if (orders[index].price > orders[index - 1].price || orders[index].price == orders[index - 1].price){\r\n                    break;\r\n                } else if(orders[index].price < orders[index - 1].price){\r\n                    //swap last element and penultimate element\r\n                    Order memory orderToMove = orders[index];\r\n                    orders[index] = orders[index - 1];\r\n                    orders[index - 1] = orderToMove;\r\n                }\r\n            }\r\n        }\r\n        else if(_side == Side.SELL){\r\n            for (uint256 index = orders.length; index > 0; index--) {\r\n                if (orders[index].price > orders[index - 1].price || orders[index].price == orders[index - 1].price){\r\n                    break;\r\n                } else if(orders[index].price < orders[index - 1].price){\r\n                    //swap last element and penultimate element\r\n                    Order memory orderToMove = orders[index];\r\n                    orders[index] = orders[index - 1];\r\n                    orders[index - 1] = orderToMove;\r\n                }\r\n            }\r\n        }\r\n        nextOrderId++;\r\n    }\r\n}",
  "sourcePath": "C:/Users/Matthew Watman/Desktop/Dev/IOTA/dex/contracts/Dex.sol",
  "compiler": {
    "name": "solc",
    "version": "0.7.6+commit.7338295f.Emscripten.clang"
  },
  "schemaVersion": "3.3.3",
  "updatedAt": "2021-03-13T02:35:49.328Z",
  "devdoc": {
    "kind": "dev",
    "methods": {
      "owner()": {
        "details": "Returns the address of the current owner."
      },
      "renounceOwnership()": {
        "details": "Leaves the contract without owner. It will not be possible to call `onlyOwner` functions anymore. Can only be called by the current owner. NOTE: Renouncing ownership will leave the contract without an owner, thereby removing any functionality that is only available to the owner."
      },
      "transferOwnership(address)": {
        "details": "Transfers ownership of the contract to a new account (`newOwner`). Can only be called by the current owner."
      }
    },
    "version": 1
  },
  "userdoc": {
    "kind": "user",
    "methods": {},
    "version": 1
  }
}