{
  "contractName": "Dex",
  "abi": [
    {
      "anonymous": false,
      "inputs": [
        {
          "indexed": true,
          "internalType": "address",
          "name": "previousOwner",
          "type": "address"
        },
        {
          "indexed": true,
          "internalType": "address",
          "name": "newOwner",
          "type": "address"
        }
      ],
      "name": "OwnershipTransferred",
      "type": "event"
    },
    {
      "inputs": [
        {
          "internalType": "bytes32",
          "name": "ticker",
          "type": "bytes32"
        },
        {
          "internalType": "address",
          "name": "tokenAddress",
          "type": "address"
        }
      ],
      "name": "addTokenSupport",
      "outputs": [],
      "stateMutability": "nonpayable",
      "type": "function"
    },
    {
      "inputs": [
        {
          "internalType": "address",
          "name": "",
          "type": "address"
        },
        {
          "internalType": "bytes32",
          "name": "",
          "type": "bytes32"
        }
      ],
      "name": "balances",
      "outputs": [
        {
          "internalType": "uint256",
          "name": "",
          "type": "uint256"
        }
      ],
      "stateMutability": "view",
      "type": "function"
    },
    {
      "inputs": [
        {
          "internalType": "uint256",
          "name": "amount",
          "type": "uint256"
        },
        {
          "internalType": "bytes32",
          "name": "ticker",
          "type": "bytes32"
        }
      ],
      "name": "deposit",
      "outputs": [],
      "stateMutability": "nonpayable",
      "type": "function"
    },
    {
      "inputs": [],
      "name": "depositEth",
      "outputs": [],
      "stateMutability": "payable",
      "type": "function"
    },
    {
      "inputs": [],
      "name": "nextOrderId",
      "outputs": [
        {
          "internalType": "uint256",
          "name": "",
          "type": "uint256"
        }
      ],
      "stateMutability": "view",
      "type": "function"
    },
    {
      "inputs": [
        {
          "internalType": "bytes32",
          "name": "",
          "type": "bytes32"
        },
        {
          "internalType": "uint256",
          "name": "",
          "type": "uint256"
        },
        {
          "internalType": "uint256",
          "name": "",
          "type": "uint256"
        }
      ],
      "name": "orderBook",
      "outputs": [
        {
          "internalType": "uint256",
          "name": "id",
          "type": "uint256"
        },
        {
          "internalType": "address",
          "name": "trader",
          "type": "address"
        },
        {
          "internalType": "enum Dex.Side",
          "name": "side",
          "type": "uint8"
        },
        {
          "internalType": "bytes32",
          "name": "ticker",
          "type": "bytes32"
        },
        {
          "internalType": "uint256",
          "name": "amount",
          "type": "uint256"
        },
        {
          "internalType": "uint256",
          "name": "price",
          "type": "uint256"
        }
      ],
      "stateMutability": "view",
      "type": "function"
    },
    {
      "inputs": [],
      "name": "owner",
      "outputs": [
        {
          "internalType": "address",
          "name": "",
          "type": "address"
        }
      ],
      "stateMutability": "view",
      "type": "function"
    },
    {
      "inputs": [],
      "name": "renounceOwnership",
      "outputs": [],
      "stateMutability": "nonpayable",
      "type": "function"
    },
    {
      "inputs": [
        {
          "internalType": "uint256",
          "name": "",
          "type": "uint256"
        }
      ],
      "name": "tokenList",
      "outputs": [
        {
          "internalType": "bytes32",
          "name": "",
          "type": "bytes32"
        }
      ],
      "stateMutability": "view",
      "type": "function"
    },
    {
      "inputs": [
        {
          "internalType": "bytes32",
          "name": "",
          "type": "bytes32"
        }
      ],
      "name": "tokenMapping",
      "outputs": [
        {
          "internalType": "bytes32",
          "name": "ticker",
          "type": "bytes32"
        },
        {
          "internalType": "address",
          "name": "tokenAddress",
          "type": "address"
        }
      ],
      "stateMutability": "view",
      "type": "function"
    },
    {
      "inputs": [
        {
          "internalType": "address",
          "name": "newOwner",
          "type": "address"
        }
      ],
      "name": "transferOwnership",
      "outputs": [],
      "stateMutability": "nonpayable",
      "type": "function"
    },
    {
      "inputs": [
        {
          "internalType": "uint256",
          "name": "amount",
          "type": "uint256"
        },
        {
          "internalType": "bytes32",
          "name": "ticker",
          "type": "bytes32"
        }
      ],
      "name": "withdraw",
      "outputs": [],
      "stateMutability": "nonpayable",
      "type": "function"
    },
    {
      "inputs": [
        {
          "internalType": "uint256",
          "name": "amount",
          "type": "uint256"
        }
      ],
      "name": "withdrawEth",
      "outputs": [],
      "stateMutability": "nonpayable",
      "type": "function"
    },
    {
      "inputs": [
        {
          "internalType": "bytes32",
          "name": "_ticker",
          "type": "bytes32"
        },
        {
          "internalType": "enum Dex.Side",
          "name": "_side",
          "type": "uint8"
        }
      ],
      "name": "getOrderBook",
      "outputs": [
        {
          "components": [
            {
              "internalType": "uint256",
              "name": "id",
              "type": "uint256"
            },
            {
              "internalType": "address",
              "name": "trader",
              "type": "address"
            },
            {
              "internalType": "enum Dex.Side",
              "name": "side",
              "type": "uint8"
            },
            {
              "internalType": "bytes32",
              "name": "ticker",
              "type": "bytes32"
            },
            {
              "internalType": "uint256",
              "name": "amount",
              "type": "uint256"
            },
            {
              "internalType": "uint256",
              "name": "price",
              "type": "uint256"
            }
          ],
          "internalType": "struct Dex.Order[]",
          "name": "",
          "type": "tuple[]"
        }
      ],
      "stateMutability": "view",
      "type": "function"
    },
    {
      "inputs": [
        {
          "internalType": "enum Dex.Side",
          "name": "_side",
          "type": "uint8"
        },
        {
          "internalType": "bytes32",
          "name": "_ticker",
          "type": "bytes32"
        },
        {
          "internalType": "uint256",
          "name": "_amount",
          "type": "uint256"
        },
        {
          "internalType": "uint256",
          "name": "_price",
          "type": "uint256"
        }
      ],
      "name": "createLimitOrder",
      "outputs": [],
      "stateMutability": "nonpayable",
      "type": "function"
    }
  ],
  "bytecode": "0x608060405234801561001057600080fd5b5060006100216100c460201b60201c565b9050806000806101000a81548173ffffffffffffffffffffffffffffffffffffffff021916908373ffffffffffffffffffffffffffffffffffffffff1602179055508073ffffffffffffffffffffffffffffffffffffffff16600073ffffffffffffffffffffffffffffffffffffffff167f8be0079c531659141344cd1fd0a4f28419497f9722a3daafe3b4186f6b6457e060405160405180910390a3506100cc565b600033905090565b612713806100db6000396000f3fe6080604052600436106100e85760003560e01c80638c20f9e91161008a578063ba58ea6811610059578063ba58ea68146102d9578063c311d04914610316578063c9630cb01461033f578063f2fde38b14610368576100e8565b80638c20f9e91461021f5780638da5cb5b146102485780639ead722214610273578063a8d2021a146102b0576100e8565b8063439370b1116100c6578063439370b114610197578063667cb4ba146101a15780636f3b62f9146101df578063715018a614610208576100e8565b80630bb431b6146100ed5780631f14df691461012f5780632a58b3301461016c575b600080fd5b3480156100f957600080fd5b50610114600480360381019061010f91906121a3565b610391565b604051610126969594939291906124bf565b60405180910390f35b34801561013b57600080fd5b50610156600480360381019061015191906120c6565b610424565b60405161016391906124a4565b60405180910390f35b34801561017857600080fd5b50610181610449565b60405161018e91906124a4565b60405180910390f35b61019f61044f565b005b3480156101ad57600080fd5b506101c860048036038101906101c39190612102565b610548565b6040516101d692919061247b565b60405180910390f35b3480156101eb57600080fd5b50610206600480360381019061020191906121f2565b61058c565b005b34801561021457600080fd5b5061021d610f67565b005b34801561022b57600080fd5b506102466004803603810190610241919061212b565b6110d4565b005b34801561025457600080fd5b5061025d611242565b60405161026a9190612423565b60405180910390f35b34801561027f57600080fd5b5061029a60048036038101906102959190612255565b61126b565b6040516102a79190612460565b60405180910390f35b3480156102bc57600080fd5b506102d760048036038101906102d2919061227e565b61128f565b005b3480156102e557600080fd5b5061030060048036038101906102fb9190612167565b611594565b60405161030d919061243e565b60405180910390f35b34801561032257600080fd5b5061033d60048036038101906103389190612255565b6116ce565b005b34801561034b57600080fd5b506103666004803603810190610361919061227e565b6118f7565b005b34801561037457600080fd5b5061038f600480360381019061038a919061209d565b611cbe565b005b600560205282600052604060002060205281600052604060002081815481106103b957600080fd5b906000526020600020906005020160009250925050508060000154908060010160009054906101000a900473ffffffffffffffffffffffffffffffffffffffff16908060010160149054906101000a900460ff16908060020154908060030154908060040154905086565b6003602052816000526040600020602052806000526040600020600091509150505481565b60045481565b6104d234600360003373ffffffffffffffffffffffffffffffffffffffff1673ffffffffffffffffffffffffffffffffffffffff16815260200190815260200160002060007f4554480000000000000000000000000000000000000000000000000000000000815260200190815260200160002054611eb090919063ffffffff16565b600360003373ffffffffffffffffffffffffffffffffffffffff1673ffffffffffffffffffffffffffffffffffffffff16815260200190815260200160002060007f4554480000000000000000000000000000000000000000000000000000000000815260200190815260200160002081905550565b60016020528060005260406000206000915090508060000154908060010160009054906101000a900473ffffffffffffffffffffffffffffffffffffffff16905082565b6000600181111561059957fe5b8460018111156105a557fe5b141561063b576105be8183611f3890919063ffffffff16565b600360003373ffffffffffffffffffffffffffffffffffffffff1673ffffffffffffffffffffffffffffffffffffffff16815260200190815260200160002060007f4554480000000000000000000000000000000000000000000000000000000000815260200190815260200160002054101561063a57600080fd5b5b60018081111561064757fe5b84600181111561065357fe5b14156106b75781600360003373ffffffffffffffffffffffffffffffffffffffff1673ffffffffffffffffffffffffffffffffffffffff16815260200190815260200160002060008581526020019081526020016000205410156106b657600080fd5b5b60006005600085815260200190815260200160002060008660018111156106da57fe5b81526020019081526020016000209050806040518060c0016040528060045481526020013373ffffffffffffffffffffffffffffffffffffffff16815260200187600181111561072657fe5b81526020018681526020018581526020018481525090806001815401808255809150506001900390600052602060002090600502016000909190919091506000820151816000015560208201518160010160006101000a81548173ffffffffffffffffffffffffffffffffffffffff021916908373ffffffffffffffffffffffffffffffffffffffff16021790555060408201518160010160146101000a81548160ff021916908360018111156107d957fe5b0217905550606082015181600201556080820151816003015560a0820151816004015550506000600181111561080b57fe5b85600181111561081757fe5b1415610ba8576000818054905090505b6000811115610ba25781600182038154811061083f57fe5b90600052602060002090600502016004015482828154811061085d57fe5b90600052602060002090600502016004015411806108b7575081600182038154811061088557fe5b9060005260206000209060050201600401548282815481106108a357fe5b906000526020600020906005020160040154145b156108c157610ba2565b8160018203815481106108d057fe5b9060005260206000209060050201600401548282815481106108ee57fe5b9060005260206000209060050201600401541015610b9457600082828154811061091457fe5b90600052602060002090600502016040518060c0016040529081600082015481526020016001820160009054906101000a900473ffffffffffffffffffffffffffffffffffffffff1673ffffffffffffffffffffffffffffffffffffffff1673ffffffffffffffffffffffffffffffffffffffff1681526020016001820160149054906101000a900460ff1660018111156109ab57fe5b60018111156109b657fe5b8152602001600282015481526020016003820154815260200160048201548152505090508260018303815481106109e957fe5b9060005260206000209060050201838381548110610a0357fe5b9060005260206000209060050201600082015481600001556001820160009054906101000a900473ffffffffffffffffffffffffffffffffffffffff168160010160006101000a81548173ffffffffffffffffffffffffffffffffffffffff021916908373ffffffffffffffffffffffffffffffffffffffff1602179055506001820160149054906101000a900460ff168160010160146101000a81548160ff02191690836001811115610ab357fe5b021790555060028201548160020155600382015481600301556004820154816004015590505080836001840381548110610ae957fe5b90600052602060002090600502016000820151816000015560208201518160010160006101000a81548173ffffffffffffffffffffffffffffffffffffffff021916908373ffffffffffffffffffffffffffffffffffffffff16021790555060408201518160010160146101000a81548160ff02191690836001811115610b6c57fe5b0217905550606082015181600201556080820151816003015560a08201518160040155905050505b808060019003915050610827565b50610f4e565b600180811115610bb457fe5b856001811115610bc057fe5b1415610f4d576000818054905090505b6000811115610f4b57816001820381548110610be857fe5b906000526020600020906005020160040154828281548110610c0657fe5b9060005260206000209060050201600401541180610c605750816001820381548110610c2e57fe5b906000526020600020906005020160040154828281548110610c4c57fe5b906000526020600020906005020160040154145b15610c6a57610f4b565b816001820381548110610c7957fe5b906000526020600020906005020160040154828281548110610c9757fe5b9060005260206000209060050201600401541015610f3d576000828281548110610cbd57fe5b90600052602060002090600502016040518060c0016040529081600082015481526020016001820160009054906101000a900473ffffffffffffffffffffffffffffffffffffffff1673ffffffffffffffffffffffffffffffffffffffff1673ffffffffffffffffffffffffffffffffffffffff1681526020016001820160149054906101000a900460ff166001811115610d5457fe5b6001811115610d5f57fe5b815260200160028201548152602001600382015481526020016004820154815250509050826001830381548110610d9257fe5b9060005260206000209060050201838381548110610dac57fe5b9060005260206000209060050201600082015481600001556001820160009054906101000a900473ffffffffffffffffffffffffffffffffffffffff168160010160006101000a81548173ffffffffffffffffffffffffffffffffffffffff021916908373ffffffffffffffffffffffffffffffffffffffff1602179055506001820160149054906101000a900460ff168160010160146101000a81548160ff02191690836001811115610e5c57fe5b021790555060028201548160020155600382015481600301556004820154816004015590505080836001840381548110610e9257fe5b90600052602060002090600502016000820151816000015560208201518160010160006101000a81548173ffffffffffffffffffffffffffffffffffffffff021916908373ffffffffffffffffffffffffffffffffffffffff16021790555060408201518160010160146101000a81548160ff02191690836001811115610f1557fe5b0217905550606082015181600201556080820151816003015560a08201518160040155905050505b808060019003915050610bd0565b505b5b6004600081548092919060010191905055505050505050565b610f6f611fbe565b73ffffffffffffffffffffffffffffffffffffffff16610f8d611242565b73ffffffffffffffffffffffffffffffffffffffff1614611016576040517f08c379a00000000000000000000000000000000000000000000000000000000081526004018080602001828103825260208152602001807f4f776e61626c653a2063616c6c6572206973206e6f7420746865206f776e657281525060200191505060405180910390fd5b600073ffffffffffffffffffffffffffffffffffffffff1660008054906101000a900473ffffffffffffffffffffffffffffffffffffffff1673ffffffffffffffffffffffffffffffffffffffff167f8be0079c531659141344cd1fd0a4f28419497f9722a3daafe3b4186f6b6457e060405160405180910390a360008060006101000a81548173ffffffffffffffffffffffffffffffffffffffff021916908373ffffffffffffffffffffffffffffffffffffffff160217905550565b6110dc611fbe565b73ffffffffffffffffffffffffffffffffffffffff166110fa611242565b73ffffffffffffffffffffffffffffffffffffffff1614611183576040517f08c379a00000000000000000000000000000000000000000000000000000000081526004018080602001828103825260208152602001807f4f776e61626c653a2063616c6c6572206973206e6f7420746865206f776e657281525060200191505060405180910390fd5b60405180604001604052808381526020018273ffffffffffffffffffffffffffffffffffffffff16815250600160008481526020019081526020016000206000820151816000015560208201518160010160006101000a81548173ffffffffffffffffffffffffffffffffffffffff021916908373ffffffffffffffffffffffffffffffffffffffff16021790555090505060028290806001815401808255809150506001900390600052602060002001600090919091909150555050565b60008060009054906101000a900473ffffffffffffffffffffffffffffffffffffffff16905090565b6002818154811061127b57600080fd5b906000526020600020016000915090505481565b80600073ffffffffffffffffffffffffffffffffffffffff166001600083815260200190815260200160002060010160009054906101000a900473ffffffffffffffffffffffffffffffffffffffff1673ffffffffffffffffffffffffffffffffffffffff16141561134c576040517f08c379a00000000000000000000000000000000000000000000000000000000081526004018080602001828103825260238152602001806126bb6023913960400191505060405180910390fd5b82600360003373ffffffffffffffffffffffffffffffffffffffff1673ffffffffffffffffffffffffffffffffffffffff16815260200190815260200160002060008481526020019081526020016000205410156113f5576040517f08c379a00000000000000000000000000000000000000000000000000000000081526004018080602001828103825260238152602001806126776023913960400191505060405180910390fd5b61145883600360003373ffffffffffffffffffffffffffffffffffffffff1673ffffffffffffffffffffffffffffffffffffffff168152602001908152602001600020600085815260200190815260200160002054611fc690919063ffffffff16565b600360003373ffffffffffffffffffffffffffffffffffffffff1673ffffffffffffffffffffffffffffffffffffffff1681526020019081526020016000206000848152602001908152602001600020819055506001600083815260200190815260200160002060010160009054906101000a900473ffffffffffffffffffffffffffffffffffffffff1673ffffffffffffffffffffffffffffffffffffffff1663a9059cbb33856040518363ffffffff1660e01b8152600401808373ffffffffffffffffffffffffffffffffffffffff16815260200182815260200192505050602060405180830381600087803b15801561155357600080fd5b505af1158015611567573d6000803e3d6000fd5b505050506040513d602081101561157d57600080fd5b810190808051906020019092919050505050505050565b60606005600084815260200190815260200160002060008360018111156115b757fe5b8152602001908152602001600020805480602002602001604051908101604052809291908181526020016000905b828210156116c257838290600052602060002090600502016040518060c0016040529081600082015481526020016001820160009054906101000a900473ffffffffffffffffffffffffffffffffffffffff1673ffffffffffffffffffffffffffffffffffffffff1673ffffffffffffffffffffffffffffffffffffffff1681526020016001820160149054906101000a900460ff16600181111561168657fe5b600181111561169157fe5b81526020016002820154815260200160038201548152602001600482015481525050815260200190600101906115e5565b50505050905092915050565b80600360003373ffffffffffffffffffffffffffffffffffffffff1673ffffffffffffffffffffffffffffffffffffffff16815260200190815260200160002060007f45544800000000000000000000000000000000000000000000000000000000008152602001908152602001600020541015611797576040517f08c379a00000000000000000000000000000000000000000000000000000000081526004018080602001828103825260218152602001806126566021913960400191505060405180910390fd5b61181a81600360003373ffffffffffffffffffffffffffffffffffffffff1673ffffffffffffffffffffffffffffffffffffffff16815260200190815260200160002060007f4554480000000000000000000000000000000000000000000000000000000000815260200190815260200160002054611fc690919063ffffffff16565b600360003373ffffffffffffffffffffffffffffffffffffffff1673ffffffffffffffffffffffffffffffffffffffff16815260200190815260200160002060007f45544800000000000000000000000000000000000000000000000000000000008152602001908152602001600020819055503373ffffffffffffffffffffffffffffffffffffffff168160405180600001905060006040518083038185875af1925050503d80600081146118ec576040519150601f19603f3d011682016040523d82523d6000602084013e6118f1565b606091505b50505050565b80600073ffffffffffffffffffffffffffffffffffffffff166001600083815260200190815260200160002060010160009054906101000a900473ffffffffffffffffffffffffffffffffffffffff1673ffffffffffffffffffffffffffffffffffffffff1614156119b4576040517f08c379a00000000000000000000000000000000000000000000000000000000081526004018080602001828103825260238152602001806126bb6023913960400191505060405180910390fd5b826001600084815260200190815260200160002060010160009054906101000a900473ffffffffffffffffffffffffffffffffffffffff1673ffffffffffffffffffffffffffffffffffffffff166370a08231336040518263ffffffff1660e01b8152600401808273ffffffffffffffffffffffffffffffffffffffff16815260200191505060206040518083038186803b158015611a5257600080fd5b505afa158015611a66573d6000803e3d6000fd5b505050506040513d6020811015611a7c57600080fd5b81019080805190602001909291905050501015611b01576040517f08c379a00000000000000000000000000000000000000000000000000000000081526004018080602001828103825260208152602001807f496e73756666696369656e742062616c616e636520666f72206465706f73697481525060200191505060405180910390fd5b611b6483600360003373ffffffffffffffffffffffffffffffffffffffff1673ffffffffffffffffffffffffffffffffffffffff168152602001908152602001600020600085815260200190815260200160002054611eb090919063ffffffff16565b600360003373ffffffffffffffffffffffffffffffffffffffff1673ffffffffffffffffffffffffffffffffffffffff1681526020019081526020016000206000848152602001908152602001600020819055506001600083815260200190815260200160002060010160009054906101000a900473ffffffffffffffffffffffffffffffffffffffff1673ffffffffffffffffffffffffffffffffffffffff166323b872dd3330866040518463ffffffff1660e01b8152600401808473ffffffffffffffffffffffffffffffffffffffff1681526020018373ffffffffffffffffffffffffffffffffffffffff1681526020018281526020019350505050602060405180830381600087803b158015611c7d57600080fd5b505af1158015611c91573d6000803e3d6000fd5b505050506040513d6020811015611ca757600080fd5b810190808051906020019092919050505050505050565b611cc6611fbe565b73ffffffffffffffffffffffffffffffffffffffff16611ce4611242565b73ffffffffffffffffffffffffffffffffffffffff1614611d6d576040517f08c379a00000000000000000000000000000000000000000000000000000000081526004018080602001828103825260208152602001807f4f776e61626c653a2063616c6c6572206973206e6f7420746865206f776e657281525060200191505060405180910390fd5b600073ffffffffffffffffffffffffffffffffffffffff168173ffffffffffffffffffffffffffffffffffffffff161415611df3576040517f08c379a00000000000000000000000000000000000000000000000000000000081526004018080602001828103825260268152602001806126306026913960400191505060405180910390fd5b8073ffffffffffffffffffffffffffffffffffffffff1660008054906101000a900473ffffffffffffffffffffffffffffffffffffffff1673ffffffffffffffffffffffffffffffffffffffff167f8be0079c531659141344cd1fd0a4f28419497f9722a3daafe3b4186f6b6457e060405160405180910390a3806000806101000a81548173ffffffffffffffffffffffffffffffffffffffff021916908373ffffffffffffffffffffffffffffffffffffffff16021790555050565b600080828401905083811015611f2e576040517f08c379a000000000000000000000000000000000000000000000000000000000815260040180806020018281038252601b8152602001807f536166654d6174683a206164646974696f6e206f766572666c6f77000000000081525060200191505060405180910390fd5b8091505092915050565b600080831415611f4b5760009050611fb8565b6000828402905082848281611f5c57fe5b0414611fb3576040517f08c379a000000000000000000000000000000000000000000000000000000000815260040180806020018281038252602181526020018061269a6021913960400191505060405180910390fd5b809150505b92915050565b600033905090565b60008282111561203e576040517f08c379a000000000000000000000000000000000000000000000000000000000815260040180806020018281038252601e8152602001807f536166654d6174683a207375627472616374696f6e206f766572666c6f77000081525060200191505060405180910390fd5b818303905092915050565b600081359050612058816125da565b92915050565b60008135905061206d816125f1565b92915050565b60008135905061208281612608565b92915050565b60008135905061209781612618565b92915050565b6000602082840312156120af57600080fd5b60006120bd84828501612049565b91505092915050565b600080604083850312156120d957600080fd5b60006120e785828601612049565b92505060206120f88582860161205e565b9150509250929050565b60006020828403121561211457600080fd5b60006121228482850161205e565b91505092915050565b6000806040838503121561213e57600080fd5b600061214c8582860161205e565b925050602061215d85828601612049565b9150509250929050565b6000806040838503121561217a57600080fd5b60006121888582860161205e565b925050602061219985828601612073565b9150509250929050565b6000806000606084860312156121b857600080fd5b60006121c68682870161205e565b93505060206121d786828701612088565b92505060406121e886828701612088565b9150509250925092565b6000806000806080858703121561220857600080fd5b600061221687828801612073565b94505060206122278782880161205e565b935050604061223887828801612088565b925050606061224987828801612088565b91505092959194509250565b60006020828403121561226757600080fd5b600061227584828501612088565b91505092915050565b6000806040838503121561229157600080fd5b600061229f85828601612088565b92505060206122b08582860161205e565b9150509250929050565b60006122c6838361238a565b60c08301905092915050565b6122db81612559565b82525050565b6122ea81612559565b82525050565b60006122fb82612530565b6123058185612548565b935061231083612520565b8060005b8381101561234157815161232888826122ba565b97506123338361253b565b925050600181019050612314565b5085935050505092915050565b6123578161256b565b82525050565b6123668161256b565b82525050565b612375816125b2565b82525050565b612384816125b2565b82525050565b60c0820160008201516123a06000850182612405565b5060208201516123b360208501826122d2565b5060408201516123c6604085018261236c565b5060608201516123d9606085018261234e565b5060808201516123ec6080850182612405565b5060a08201516123ff60a0850182612405565b50505050565b61240e816125a8565b82525050565b61241d816125a8565b82525050565b600060208201905061243860008301846122e1565b92915050565b6000602082019050818103600083015261245881846122f0565b905092915050565b6000602082019050612475600083018461235d565b92915050565b6000604082019050612490600083018561235d565b61249d60208301846122e1565b9392505050565b60006020820190506124b96000830184612414565b92915050565b600060c0820190506124d46000830189612414565b6124e160208301886122e1565b6124ee604083018761237b565b6124fb606083018661235d565b6125086080830185612414565b61251560a0830184612414565b979650505050505050565b6000819050602082019050919050565b600081519050919050565b6000602082019050919050565b600082825260208201905092915050565b600061256482612588565b9050919050565b6000819050919050565b6000819050612583826125c6565b919050565b600073ffffffffffffffffffffffffffffffffffffffff82169050919050565b6000819050919050565b60006125bd82612575565b9050919050565bfe5b600281106125d7576125d66125c4565b5b50565b6125e381612559565b81146125ee57600080fd5b50565b6125fa8161256b565b811461260557600080fd5b50565b6002811061261557600080fd5b50565b612621816125a8565b811461262c57600080fd5b5056fe4f776e61626c653a206e6577206f776e657220697320746865207a65726f2061646472657373496e7375666669656e742062616c616e636520666f72207769746864726177616c496e73756666696369656e742062616c616e636520666f72207769746864726177616c536166654d6174683a206d756c7469706c69636174696f6e206f766572666c6f77546f6b656e206973206e6f7420737570706f7274656420617420746869732074696d65a26469706673582212204370eb6cebb04f0be934754ad0e648c0de1d00b17f5bb86d0d54dcdc265e6ae564736f6c63430007060033",
  "immutableReferences": {},
  "source": "// SPDX-License-Identifier: MIT\r\npragma solidity >= 0.6.0 < 0.8.0;\r\npragma experimental ABIEncoderV2;\r\nimport \"./Wallet.sol\";\r\n\r\ncontract Dex is Wallet {\r\n    \r\n    using SafeMath for uint256;\r\n\r\n    enum Side {\r\n        BUY,\r\n        SELL\r\n    }\r\n\r\n    struct Order {\r\n        uint id;\r\n        address trader;\r\n        Side side;\r\n        bytes32 ticker;\r\n        uint amount;\r\n        uint price;\r\n    }\r\n\r\n    uint public nextOrderId;\r\n\r\n    //Ticker => Side => Orderbook\r\n    mapping(bytes32 => mapping(uint => Order[])) public orderBook;\r\n\r\n    function getOrderBook(bytes32 _ticker, Side _side) view public returns(Order[] memory){\r\n        return orderBook[_ticker][uint(_side)];\r\n    }\r\n\r\n    function createLimitOrder(Side _side, bytes32 _ticker, uint _amount, uint _price) public {\r\n    //Perform checks as required in tests \r\n        if(_side == Side.BUY){\r\n            require(balances[msg.sender]['ETH'] >= _amount.mul(_price));\r\n        }\r\n        if(_side == Side.SELL){\r\n            require(balances[msg.sender][_ticker] >= _amount);\r\n        }\r\n        \r\n        Order[] storage orders = orderBook[_ticker][uint(_side)];\r\n        orders.push(\r\n            Order(nextOrderId, msg.sender, _side, _ticker, _amount, _price)\r\n        );\r\n        //Bubble sort algorithm \r\n        if(_side == Side.BUY){\r\n            for (uint256 index = orders.length; index > 0; index--) {\r\n                if (orders[index].price > orders[index - 1].price || orders[index].price == orders[index - 1].price){\r\n                    break;\r\n                } else if(orders[index].price < orders[index - 1].price){\r\n                    //swap last element and penultimate element\r\n                    Order memory orderToMove = orders[index];\r\n                    orders[index] = orders[index - 1];\r\n                    orders[index - 1] = orderToMove;\r\n                }\r\n            }\r\n        }\r\n        else if(_side == Side.SELL){\r\n            for (uint256 index = orders.length; index > 0; index--) {\r\n                if (orders[index].price > orders[index - 1].price || orders[index].price == orders[index - 1].price){\r\n                    break;\r\n                } else if(orders[index].price < orders[index - 1].price){\r\n                    //swap last element and penultimate element\r\n                    Order memory orderToMove = orders[index];\r\n                    orders[index] = orders[index - 1];\r\n                    orders[index - 1] = orderToMove;\r\n                }\r\n            }\r\n        }\r\n        nextOrderId++;\r\n    }\r\n}",
  "sourcePath": "C:/Users/Matthew Watman/Desktop/Dev/IOTA/dex/contracts/Dex.sol",
  "compiler": {
    "name": "solc",
    "version": "0.7.6+commit.7338295f.Emscripten.clang"
  },
  "schemaVersion": "3.3.3",
  "updatedAt": "2021-03-12T20:04:00.563Z",
  "devdoc": {
    "kind": "dev",
    "methods": {
      "owner()": {
        "details": "Returns the address of the current owner."
      },
      "renounceOwnership()": {
        "details": "Leaves the contract without owner. It will not be possible to call `onlyOwner` functions anymore. Can only be called by the current owner. NOTE: Renouncing ownership will leave the contract without an owner, thereby removing any functionality that is only available to the owner."
      },
      "transferOwnership(address)": {
        "details": "Transfers ownership of the contract to a new account (`newOwner`). Can only be called by the current owner."
      }
    },
    "version": 1
  },
  "userdoc": {
    "kind": "user",
    "methods": {},
    "version": 1
  }
}