{
  "contractName": "Dex",
  "abi": [
    {
      "anonymous": false,
      "inputs": [
        {
          "indexed": true,
          "internalType": "address",
          "name": "previousOwner",
          "type": "address"
        },
        {
          "indexed": true,
          "internalType": "address",
          "name": "newOwner",
          "type": "address"
        }
      ],
      "name": "OwnershipTransferred",
      "type": "event"
    },
    {
      "inputs": [
        {
          "internalType": "bytes32",
          "name": "ticker",
          "type": "bytes32"
        },
        {
          "internalType": "address",
          "name": "tokenAddress",
          "type": "address"
        }
      ],
      "name": "addTokenSupport",
      "outputs": [],
      "stateMutability": "nonpayable",
      "type": "function"
    },
    {
      "inputs": [
        {
          "internalType": "address",
          "name": "",
          "type": "address"
        },
        {
          "internalType": "bytes32",
          "name": "",
          "type": "bytes32"
        }
      ],
      "name": "balances",
      "outputs": [
        {
          "internalType": "uint256",
          "name": "",
          "type": "uint256"
        }
      ],
      "stateMutability": "view",
      "type": "function",
      "constant": true
    },
    {
      "inputs": [
        {
          "internalType": "uint256",
          "name": "amount",
          "type": "uint256"
        },
        {
          "internalType": "bytes32",
          "name": "ticker",
          "type": "bytes32"
        }
      ],
      "name": "deposit",
      "outputs": [],
      "stateMutability": "nonpayable",
      "type": "function"
    },
    {
      "inputs": [],
      "name": "depositEth",
      "outputs": [],
      "stateMutability": "payable",
      "type": "function",
      "payable": true
    },
    {
      "inputs": [],
      "name": "nextOrderId",
      "outputs": [
        {
          "internalType": "uint256",
          "name": "",
          "type": "uint256"
        }
      ],
      "stateMutability": "view",
      "type": "function",
      "constant": true
    },
    {
      "inputs": [
        {
          "internalType": "bytes32",
          "name": "",
          "type": "bytes32"
        },
        {
          "internalType": "uint256",
          "name": "",
          "type": "uint256"
        },
        {
          "internalType": "uint256",
          "name": "",
          "type": "uint256"
        }
      ],
      "name": "orderBook",
      "outputs": [
        {
          "internalType": "uint256",
          "name": "id",
          "type": "uint256"
        },
        {
          "internalType": "address",
          "name": "trader",
          "type": "address"
        },
        {
          "internalType": "enum Dex.Side",
          "name": "side",
          "type": "uint8"
        },
        {
          "internalType": "bytes32",
          "name": "ticker",
          "type": "bytes32"
        },
        {
          "internalType": "uint256",
          "name": "amount",
          "type": "uint256"
        },
        {
          "internalType": "uint256",
          "name": "price",
          "type": "uint256"
        },
        {
          "internalType": "uint256",
          "name": "filled",
          "type": "uint256"
        }
      ],
      "stateMutability": "view",
      "type": "function",
      "constant": true
    },
    {
      "inputs": [],
      "name": "owner",
      "outputs": [
        {
          "internalType": "address",
          "name": "",
          "type": "address"
        }
      ],
      "stateMutability": "view",
      "type": "function",
      "constant": true
    },
    {
      "inputs": [],
      "name": "renounceOwnership",
      "outputs": [],
      "stateMutability": "nonpayable",
      "type": "function"
    },
    {
      "inputs": [
        {
          "internalType": "uint256",
          "name": "",
          "type": "uint256"
        }
      ],
      "name": "tokenList",
      "outputs": [
        {
          "internalType": "bytes32",
          "name": "",
          "type": "bytes32"
        }
      ],
      "stateMutability": "view",
      "type": "function",
      "constant": true
    },
    {
      "inputs": [
        {
          "internalType": "bytes32",
          "name": "",
          "type": "bytes32"
        }
      ],
      "name": "tokenMapping",
      "outputs": [
        {
          "internalType": "bytes32",
          "name": "ticker",
          "type": "bytes32"
        },
        {
          "internalType": "address",
          "name": "tokenAddress",
          "type": "address"
        }
      ],
      "stateMutability": "view",
      "type": "function",
      "constant": true
    },
    {
      "inputs": [
        {
          "internalType": "address",
          "name": "newOwner",
          "type": "address"
        }
      ],
      "name": "transferOwnership",
      "outputs": [],
      "stateMutability": "nonpayable",
      "type": "function"
    },
    {
      "inputs": [
        {
          "internalType": "uint256",
          "name": "amount",
          "type": "uint256"
        },
        {
          "internalType": "bytes32",
          "name": "ticker",
          "type": "bytes32"
        }
      ],
      "name": "withdraw",
      "outputs": [],
      "stateMutability": "nonpayable",
      "type": "function"
    },
    {
      "inputs": [
        {
          "internalType": "uint256",
          "name": "amount",
          "type": "uint256"
        }
      ],
      "name": "withdrawEth",
      "outputs": [],
      "stateMutability": "nonpayable",
      "type": "function"
    },
    {
      "inputs": [
        {
          "internalType": "bytes32",
          "name": "_ticker",
          "type": "bytes32"
        },
        {
          "internalType": "enum Dex.Side",
          "name": "_side",
          "type": "uint8"
        }
      ],
      "name": "getOrderBook",
      "outputs": [
        {
          "components": [
            {
              "internalType": "uint256",
              "name": "id",
              "type": "uint256"
            },
            {
              "internalType": "address",
              "name": "trader",
              "type": "address"
            },
            {
              "internalType": "enum Dex.Side",
              "name": "side",
              "type": "uint8"
            },
            {
              "internalType": "bytes32",
              "name": "ticker",
              "type": "bytes32"
            },
            {
              "internalType": "uint256",
              "name": "amount",
              "type": "uint256"
            },
            {
              "internalType": "uint256",
              "name": "price",
              "type": "uint256"
            },
            {
              "internalType": "uint256",
              "name": "filled",
              "type": "uint256"
            }
          ],
          "internalType": "struct Dex.Order[]",
          "name": "",
          "type": "tuple[]"
        }
      ],
      "stateMutability": "view",
      "type": "function",
      "constant": true
    },
    {
      "inputs": [
        {
          "internalType": "enum Dex.Side",
          "name": "_side",
          "type": "uint8"
        },
        {
          "internalType": "bytes32",
          "name": "_ticker",
          "type": "bytes32"
        },
        {
          "internalType": "uint256",
          "name": "_amount",
          "type": "uint256"
        },
        {
          "internalType": "uint256",
          "name": "_price",
          "type": "uint256"
        }
      ],
      "name": "createLimitOrder",
      "outputs": [],
      "stateMutability": "nonpayable",
      "type": "function"
    },
    {
      "inputs": [
        {
          "internalType": "enum Dex.Side",
          "name": "_side",
          "type": "uint8"
        },
        {
          "internalType": "bytes32",
          "name": "_ticker",
          "type": "bytes32"
        },
        {
          "internalType": "uint256",
          "name": "_amount",
          "type": "uint256"
        }
      ],
      "name": "createMarketOrder",
      "outputs": [],
      "stateMutability": "nonpayable",
      "type": "function"
    }
  ],
  "bytecode": "0x60806040523480156200001157600080fd5b50600062000024620000c860201b60201c565b9050806000806101000a81548173ffffffffffffffffffffffffffffffffffffffff021916908373ffffffffffffffffffffffffffffffffffffffff1602179055508073ffffffffffffffffffffffffffffffffffffffff16600073ffffffffffffffffffffffffffffffffffffffff167f8be0079c531659141344cd1fd0a4f28419497f9722a3daafe3b4186f6b6457e060405160405180910390a350620000d0565b600033905090565b61371780620000e06000396000f3fe6080604052600436106100f35760003560e01c80638da5cb5b1161008a578063ba58ea6811610059578063ba58ea681461030e578063c311d0491461034b578063c9630cb014610374578063f2fde38b1461039d576100f3565b80638da5cb5b1461025457806399ec2f1c1461027f5780639ead7222146102a8578063a8d2021a146102e5576100f3565b8063667cb4ba116100c6578063667cb4ba146101ad5780636f3b62f9146101eb578063715018a6146102145780638c20f9e91461022b576100f3565b80630bb431b6146100f85780631f14df691461013b5780632a58b33014610178578063439370b1146101a3575b600080fd5b34801561010457600080fd5b5061011f600480360381019061011a9190613006565b6103c6565b60405161013297969594939291906134a4565b60405180910390f35b34801561014757600080fd5b50610162600480360381019061015d9190612f29565b61045f565b60405161016f9190613489565b60405180910390f35b34801561018457600080fd5b5061018d610484565b60405161019a9190613489565b60405180910390f35b6101ab61048a565b005b3480156101b957600080fd5b506101d460048036038101906101cf9190612f65565b610583565b6040516101e2929190613400565b60405180910390f35b3480156101f757600080fd5b50610212600480360381019061020d91906130a4565b6105c7565b005b34801561022057600080fd5b50610229610fd1565b005b34801561023757600080fd5b50610252600480360381019061024d9190612f8e565b61113e565b005b34801561026057600080fd5b506102696112ac565b60405161027691906133a8565b60405180910390f35b34801561028b57600080fd5b506102a660048036038101906102a19190613055565b6112d5565b005b3480156102b457600080fd5b506102cf60048036038101906102ca9190613107565b6120c4565b6040516102dc91906133e5565b60405180910390f35b3480156102f157600080fd5b5061030c60048036038101906103079190613130565b6120e8565b005b34801561031a57600080fd5b5061033560048036038101906103309190612fca565b6123ed565b60405161034291906133c3565b60405180910390f35b34801561035757600080fd5b50610372600480360381019061036d9190613107565b612531565b005b34801561038057600080fd5b5061039b60048036038101906103969190613130565b61275a565b005b3480156103a957600080fd5b506103c460048036038101906103bf9190612f00565b612b21565b005b600560205282600052604060002060205281600052604060002081815481106103ee57600080fd5b906000526020600020906006020160009250925050508060000154908060010160009054906101000a900473ffffffffffffffffffffffffffffffffffffffff16908060010160149054906101000a900460ff16908060020154908060030154908060040154908060050154905087565b6003602052816000526040600020602052806000526040600020600091509150505481565b60045481565b61050d34600360003373ffffffffffffffffffffffffffffffffffffffff1673ffffffffffffffffffffffffffffffffffffffff16815260200190815260200160002060007f4554480000000000000000000000000000000000000000000000000000000000815260200190815260200160002054612d1390919063ffffffff16565b600360003373ffffffffffffffffffffffffffffffffffffffff1673ffffffffffffffffffffffffffffffffffffffff16815260200190815260200160002060007f4554480000000000000000000000000000000000000000000000000000000000815260200190815260200160002081905550565b60016020528060005260406000206000915090508060000154908060010160009054906101000a900473ffffffffffffffffffffffffffffffffffffffff16905082565b600060018111156105d457fe5b8460018111156105e057fe5b14156106ac576105f98183612d9b90919063ffffffff16565b600360003373ffffffffffffffffffffffffffffffffffffffff1673ffffffffffffffffffffffffffffffffffffffff16815260200190815260200160002060007f455448000000000000000000000000000000000000000000000000000000000081526020019081526020016000205410156106ab576040517f08c379a00000000000000000000000000000000000000000000000000000000081526004016106a290613429565b60405180910390fd5b5b6001808111156106b857fe5b8460018111156106c457fe5b141561075e5781600360003373ffffffffffffffffffffffffffffffffffffffff1673ffffffffffffffffffffffffffffffffffffffff168152602001908152602001600020600085815260200190815260200160002054101561075d576040517f08c379a000000000000000000000000000000000000000000000000000000000815260040161075490613449565b60405180910390fd5b5b600060056000858152602001908152602001600020600086600181111561078157fe5b81526020019081526020016000209050806040518060e0016040528060045481526020013373ffffffffffffffffffffffffffffffffffffffff1681526020018760018111156107cd57fe5b8152602001868152602001858152602001848152602001600081525090806001815401808255809150506001900390600052602060002090600602016000909190919091506000820151816000015560208201518160010160006101000a81548173ffffffffffffffffffffffffffffffffffffffff021916908373ffffffffffffffffffffffffffffffffffffffff16021790555060408201518160010160146101000a81548160ff0219169083600181111561088757fe5b0217905550606082015181600201556080820151816003015560a0820151816004015560c082015181600501555050600060018111156108c357fe5b8560018111156108cf57fe5b1415610c39576000600182805490500390505b6000811115610c33578160018203815481106108fa57fe5b90600052602060002090600602016004015482828154811061091857fe5b9060005260206000209060060201600401541161093457610c33565b81600182038154811061094357fe5b90600052602060002090600602016004015482828154811061096157fe5b9060005260206000209060060201600401541115610c2557600082828154811061098757fe5b90600052602060002090600602016040518060e0016040529081600082015481526020016001820160009054906101000a900473ffffffffffffffffffffffffffffffffffffffff1673ffffffffffffffffffffffffffffffffffffffff1673ffffffffffffffffffffffffffffffffffffffff1681526020016001820160149054906101000a900460ff166001811115610a1e57fe5b6001811115610a2957fe5b81526020016002820154815260200160038201548152602001600482015481526020016005820154815250509050826001830381548110610a6657fe5b9060005260206000209060060201838381548110610a8057fe5b9060005260206000209060060201600082015481600001556001820160009054906101000a900473ffffffffffffffffffffffffffffffffffffffff168160010160006101000a81548173ffffffffffffffffffffffffffffffffffffffff021916908373ffffffffffffffffffffffffffffffffffffffff1602179055506001820160149054906101000a900460ff168160010160146101000a81548160ff02191690836001811115610b3057fe5b02179055506002820154816002015560038201548160030155600482015481600401556005820154816005015590505080836001840381548110610b7057fe5b90600052602060002090600602016000820151816000015560208201518160010160006101000a81548173ffffffffffffffffffffffffffffffffffffffff021916908373ffffffffffffffffffffffffffffffffffffffff16021790555060408201518160010160146101000a81548160ff02191690836001811115610bf357fe5b0217905550606082015181600201556080820151816003015560a0820151816004015560c08201518160050155905050505b8080600190039150506108e2565b50610fb8565b600180811115610c4557fe5b856001811115610c5157fe5b1415610fb7576000600182805490500390505b6000811115610fb557816001820381548110610c7c57fe5b906000526020600020906006020160040154828281548110610c9a57fe5b90600052602060002090600602016004015410610cb657610fb5565b816001820381548110610cc557fe5b906000526020600020906006020160040154828281548110610ce357fe5b9060005260206000209060060201600401541015610fa7576000828281548110610d0957fe5b90600052602060002090600602016040518060e0016040529081600082015481526020016001820160009054906101000a900473ffffffffffffffffffffffffffffffffffffffff1673ffffffffffffffffffffffffffffffffffffffff1673ffffffffffffffffffffffffffffffffffffffff1681526020016001820160149054906101000a900460ff166001811115610da057fe5b6001811115610dab57fe5b81526020016002820154815260200160038201548152602001600482015481526020016005820154815250509050826001830381548110610de857fe5b9060005260206000209060060201838381548110610e0257fe5b9060005260206000209060060201600082015481600001556001820160009054906101000a900473ffffffffffffffffffffffffffffffffffffffff168160010160006101000a81548173ffffffffffffffffffffffffffffffffffffffff021916908373ffffffffffffffffffffffffffffffffffffffff1602179055506001820160149054906101000a900460ff168160010160146101000a81548160ff02191690836001811115610eb257fe5b02179055506002820154816002015560038201548160030155600482015481600401556005820154816005015590505080836001840381548110610ef257fe5b90600052602060002090600602016000820151816000015560208201518160010160006101000a81548173ffffffffffffffffffffffffffffffffffffffff021916908373ffffffffffffffffffffffffffffffffffffffff16021790555060408201518160010160146101000a81548160ff02191690836001811115610f7557fe5b0217905550606082015181600201556080820151816003015560a0820151816004015560c08201518160050155905050505b808060019003915050610c64565b505b5b6004600081548092919060010191905055505050505050565b610fd9612e21565b73ffffffffffffffffffffffffffffffffffffffff16610ff76112ac565b73ffffffffffffffffffffffffffffffffffffffff1614611080576040517f08c379a00000000000000000000000000000000000000000000000000000000081526004018080602001828103825260208152602001807f4f776e61626c653a2063616c6c6572206973206e6f7420746865206f776e657281525060200191505060405180910390fd5b600073ffffffffffffffffffffffffffffffffffffffff1660008054906101000a900473ffffffffffffffffffffffffffffffffffffffff1673ffffffffffffffffffffffffffffffffffffffff167f8be0079c531659141344cd1fd0a4f28419497f9722a3daafe3b4186f6b6457e060405160405180910390a360008060006101000a81548173ffffffffffffffffffffffffffffffffffffffff021916908373ffffffffffffffffffffffffffffffffffffffff160217905550565b611146612e21565b73ffffffffffffffffffffffffffffffffffffffff166111646112ac565b73ffffffffffffffffffffffffffffffffffffffff16146111ed576040517f08c379a00000000000000000000000000000000000000000000000000000000081526004018080602001828103825260208152602001807f4f776e61626c653a2063616c6c6572206973206e6f7420746865206f776e657281525060200191505060405180910390fd5b60405180604001604052808381526020018273ffffffffffffffffffffffffffffffffffffffff16815250600160008481526020019081526020016000206000820151816000015560208201518160010160006101000a81548173ffffffffffffffffffffffffffffffffffffffff021916908373ffffffffffffffffffffffffffffffffffffffff16021790555090505060028290806001815401808255809150506001900390600052602060002001600090919091909150555050565b60008060009054906101000a900473ffffffffffffffffffffffffffffffffffffffff16905090565b6001808111156112e157fe5b8360018111156112ed57fe5b14156113875780600360003373ffffffffffffffffffffffffffffffffffffffff1673ffffffffffffffffffffffffffffffffffffffff1681526020019081526020016000206000848152602001908152602001600020541015611386576040517f08c379a000000000000000000000000000000000000000000000000000000000815260040161137d90613469565b60405180910390fd5b5b60006005600084815260200190815260200160002060008060018111156113aa57fe5b8660018111156113b657fe5b146113c25760006113c5565b60015b60ff16815260200190815260200160002090506000805b8280549050811080156113ee57508382105b15611eb35760006114088386612e2990919063ffffffff16565b9050600061145985848154811061141b57fe5b90600052602060002090600602016005015486858154811061143957fe5b906000526020600020906006020160030154612e2990919063ffffffff16565b905060008282111561146d57829050611471565b8190505b6114848186612d1390919063ffffffff16565b94506114b68187868154811061149657fe5b906000526020600020906006020160050154612d1390919063ffffffff16565b8685815481106114c257fe5b90600052602060002090600602016005018190555060006115098786815481106114e857fe5b90600052602060002090600602016004015483612d9b90919063ffffffff16565b90506000600181111561151857fe5b8a600181111561152457fe5b1415611a325780600360003373ffffffffffffffffffffffffffffffffffffffff1673ffffffffffffffffffffffffffffffffffffffff16815260200190815260200160002060007f455448000000000000000000000000000000000000000000000000000000000081526020019081526020016000205410156115dd576040517f08c379a00000000000000000000000000000000000000000000000000000000081526004016115d490613469565b60405180910390fd5b61164082600360003373ffffffffffffffffffffffffffffffffffffffff1673ffffffffffffffffffffffffffffffffffffffff16815260200190815260200160002060008c815260200190815260200160002054612d1390919063ffffffff16565b600360003373ffffffffffffffffffffffffffffffffffffffff1673ffffffffffffffffffffffffffffffffffffffff16815260200190815260200160002060008b81526020019081526020016000208190555061171781600360003373ffffffffffffffffffffffffffffffffffffffff1673ffffffffffffffffffffffffffffffffffffffff16815260200190815260200160002060007f4554480000000000000000000000000000000000000000000000000000000000815260200190815260200160002054612e2990919063ffffffff16565b600360003373ffffffffffffffffffffffffffffffffffffffff1673ffffffffffffffffffffffffffffffffffffffff16815260200190815260200160002060007f455448000000000000000000000000000000000000000000000000000000000081526020019081526020016000208190555061182b82600360008a898154811061179f57fe5b906000526020600020906006020160010160009054906101000a900473ffffffffffffffffffffffffffffffffffffffff1673ffffffffffffffffffffffffffffffffffffffff1673ffffffffffffffffffffffffffffffffffffffff16815260200190815260200160002060008c815260200190815260200160002054612e2990919063ffffffff16565b6003600089888154811061183b57fe5b906000526020600020906006020160010160009054906101000a900473ffffffffffffffffffffffffffffffffffffffff1673ffffffffffffffffffffffffffffffffffffffff1673ffffffffffffffffffffffffffffffffffffffff16815260200190815260200160002060008b81526020019081526020016000208190555061197c81600360008a89815481106118d057fe5b906000526020600020906006020160010160009054906101000a900473ffffffffffffffffffffffffffffffffffffffff1673ffffffffffffffffffffffffffffffffffffffff1673ffffffffffffffffffffffffffffffffffffffff16815260200190815260200160002060007f4554480000000000000000000000000000000000000000000000000000000000815260200190815260200160002054612d1390919063ffffffff16565b6003600089888154811061198c57fe5b906000526020600020906006020160010160009054906101000a900473ffffffffffffffffffffffffffffffffffffffff1673ffffffffffffffffffffffffffffffffffffffff1673ffffffffffffffffffffffffffffffffffffffff16815260200190815260200160002060007f4554480000000000000000000000000000000000000000000000000000000000815260200190815260200160002081905550611ea2565b600180811115611a3e57fe5b8a6001811115611a4a57fe5b1415611ea157611ab382600360003373ffffffffffffffffffffffffffffffffffffffff1673ffffffffffffffffffffffffffffffffffffffff16815260200190815260200160002060008c815260200190815260200160002054612e2990919063ffffffff16565b600360003373ffffffffffffffffffffffffffffffffffffffff1673ffffffffffffffffffffffffffffffffffffffff16815260200190815260200160002060008b815260200190815260200160002081905550611b8a81600360003373ffffffffffffffffffffffffffffffffffffffff1673ffffffffffffffffffffffffffffffffffffffff16815260200190815260200160002060007f4554480000000000000000000000000000000000000000000000000000000000815260200190815260200160002054612d1390919063ffffffff16565b600360003373ffffffffffffffffffffffffffffffffffffffff1673ffffffffffffffffffffffffffffffffffffffff16815260200190815260200160002060007f4554480000000000000000000000000000000000000000000000000000000000815260200190815260200160002081905550611c9e82600360008a8981548110611c1257fe5b906000526020600020906006020160010160009054906101000a900473ffffffffffffffffffffffffffffffffffffffff1673ffffffffffffffffffffffffffffffffffffffff1673ffffffffffffffffffffffffffffffffffffffff16815260200190815260200160002060008c815260200190815260200160002054612d1390919063ffffffff16565b60036000898881548110611cae57fe5b906000526020600020906006020160010160009054906101000a900473ffffffffffffffffffffffffffffffffffffffff1673ffffffffffffffffffffffffffffffffffffffff1673ffffffffffffffffffffffffffffffffffffffff16815260200190815260200160002060008b815260200190815260200160002081905550611def81600360008a8981548110611d4357fe5b906000526020600020906006020160010160009054906101000a900473ffffffffffffffffffffffffffffffffffffffff1673ffffffffffffffffffffffffffffffffffffffff1673ffffffffffffffffffffffffffffffffffffffff16815260200190815260200160002060007f4554480000000000000000000000000000000000000000000000000000000000815260200190815260200160002054612e2990919063ffffffff16565b60036000898881548110611dff57fe5b906000526020600020906006020160010160009054906101000a900473ffffffffffffffffffffffffffffffffffffffff1673ffffffffffffffffffffffffffffffffffffffff1673ffffffffffffffffffffffffffffffffffffffff16815260200190815260200160002060007f45544800000000000000000000000000000000000000000000000000000000008152602001908152602001600020819055505b5b5050505080806001019150506113dc565b505b60008280549050118015611f04575081600081548110611ed157fe5b90600052602060002090600602016003015482600081548110611ef057fe5b906000526020600020906006020160050154145b156120bd5760005b600183805490500381101561203157826001820181548110611f2a57fe5b9060005260206000209060060201838281548110611f4457fe5b9060005260206000209060060201600082015481600001556001820160009054906101000a900473ffffffffffffffffffffffffffffffffffffffff168160010160006101000a81548173ffffffffffffffffffffffffffffffffffffffff021916908373ffffffffffffffffffffffffffffffffffffffff1602179055506001820160149054906101000a900460ff168160010160146101000a81548160ff02191690836001811115611ff457fe5b0217905550600282015481600201556003820154816003015560048201548160040155600582015481600501559050508080600101915050611f0c565b508180548061203c57fe5b60019003818190600052602060002090600602016000808201600090556001820160006101000a81549073ffffffffffffffffffffffffffffffffffffffff02191690556001820160146101000a81549060ff0219169055600282016000905560038201600090556004820160009055600582016000905550509055611eb5565b5050505050565b600281815481106120d457600080fd5b906000526020600020016000915090505481565b80600073ffffffffffffffffffffffffffffffffffffffff166001600083815260200190815260200160002060010160009054906101000a900473ffffffffffffffffffffffffffffffffffffffff1673ffffffffffffffffffffffffffffffffffffffff1614156121a5576040517f08c379a00000000000000000000000000000000000000000000000000000000081526004018080602001828103825260238152602001806136bf6023913960400191505060405180910390fd5b82600360003373ffffffffffffffffffffffffffffffffffffffff1673ffffffffffffffffffffffffffffffffffffffff168152602001908152602001600020600084815260200190815260200160002054101561224e576040517f08c379a000000000000000000000000000000000000000000000000000000000815260040180806020018281038252602381526020018061367b6023913960400191505060405180910390fd5b6122b183600360003373ffffffffffffffffffffffffffffffffffffffff1673ffffffffffffffffffffffffffffffffffffffff168152602001908152602001600020600085815260200190815260200160002054612e2990919063ffffffff16565b600360003373ffffffffffffffffffffffffffffffffffffffff1673ffffffffffffffffffffffffffffffffffffffff1681526020019081526020016000206000848152602001908152602001600020819055506001600083815260200190815260200160002060010160009054906101000a900473ffffffffffffffffffffffffffffffffffffffff1673ffffffffffffffffffffffffffffffffffffffff1663a9059cbb33856040518363ffffffff1660e01b8152600401808373ffffffffffffffffffffffffffffffffffffffff16815260200182815260200192505050602060405180830381600087803b1580156123ac57600080fd5b505af11580156123c0573d6000803e3d6000fd5b505050506040513d60208110156123d657600080fd5b810190808051906020019092919050505050505050565b606060056000848152602001908152602001600020600083600181111561241057fe5b8152602001908152602001600020805480602002602001604051908101604052809291908181526020016000905b8282101561252557838290600052602060002090600602016040518060e0016040529081600082015481526020016001820160009054906101000a900473ffffffffffffffffffffffffffffffffffffffff1673ffffffffffffffffffffffffffffffffffffffff1673ffffffffffffffffffffffffffffffffffffffff1681526020016001820160149054906101000a900460ff1660018111156124df57fe5b60018111156124ea57fe5b81526020016002820154815260200160038201548152602001600482015481526020016005820154815250508152602001906001019061243e565b50505050905092915050565b80600360003373ffffffffffffffffffffffffffffffffffffffff1673ffffffffffffffffffffffffffffffffffffffff16815260200190815260200160002060007f455448000000000000000000000000000000000000000000000000000000000081526020019081526020016000205410156125fa576040517f08c379a000000000000000000000000000000000000000000000000000000000815260040180806020018281038252602181526020018061365a6021913960400191505060405180910390fd5b61267d81600360003373ffffffffffffffffffffffffffffffffffffffff1673ffffffffffffffffffffffffffffffffffffffff16815260200190815260200160002060007f4554480000000000000000000000000000000000000000000000000000000000815260200190815260200160002054612e2990919063ffffffff16565b600360003373ffffffffffffffffffffffffffffffffffffffff1673ffffffffffffffffffffffffffffffffffffffff16815260200190815260200160002060007f45544800000000000000000000000000000000000000000000000000000000008152602001908152602001600020819055503373ffffffffffffffffffffffffffffffffffffffff168160405180600001905060006040518083038185875af1925050503d806000811461274f576040519150601f19603f3d011682016040523d82523d6000602084013e612754565b606091505b50505050565b80600073ffffffffffffffffffffffffffffffffffffffff166001600083815260200190815260200160002060010160009054906101000a900473ffffffffffffffffffffffffffffffffffffffff1673ffffffffffffffffffffffffffffffffffffffff161415612817576040517f08c379a00000000000000000000000000000000000000000000000000000000081526004018080602001828103825260238152602001806136bf6023913960400191505060405180910390fd5b826001600084815260200190815260200160002060010160009054906101000a900473ffffffffffffffffffffffffffffffffffffffff1673ffffffffffffffffffffffffffffffffffffffff166370a08231336040518263ffffffff1660e01b8152600401808273ffffffffffffffffffffffffffffffffffffffff16815260200191505060206040518083038186803b1580156128b557600080fd5b505afa1580156128c9573d6000803e3d6000fd5b505050506040513d60208110156128df57600080fd5b81019080805190602001909291905050501015612964576040517f08c379a00000000000000000000000000000000000000000000000000000000081526004018080602001828103825260208152602001807f496e73756666696369656e742062616c616e636520666f72206465706f73697481525060200191505060405180910390fd5b6129c783600360003373ffffffffffffffffffffffffffffffffffffffff1673ffffffffffffffffffffffffffffffffffffffff168152602001908152602001600020600085815260200190815260200160002054612d1390919063ffffffff16565b600360003373ffffffffffffffffffffffffffffffffffffffff1673ffffffffffffffffffffffffffffffffffffffff1681526020019081526020016000206000848152602001908152602001600020819055506001600083815260200190815260200160002060010160009054906101000a900473ffffffffffffffffffffffffffffffffffffffff1673ffffffffffffffffffffffffffffffffffffffff166323b872dd3330866040518463ffffffff1660e01b8152600401808473ffffffffffffffffffffffffffffffffffffffff1681526020018373ffffffffffffffffffffffffffffffffffffffff1681526020018281526020019350505050602060405180830381600087803b158015612ae057600080fd5b505af1158015612af4573d6000803e3d6000fd5b505050506040513d6020811015612b0a57600080fd5b810190808051906020019092919050505050505050565b612b29612e21565b73ffffffffffffffffffffffffffffffffffffffff16612b476112ac565b73ffffffffffffffffffffffffffffffffffffffff1614612bd0576040517f08c379a00000000000000000000000000000000000000000000000000000000081526004018080602001828103825260208152602001807f4f776e61626c653a2063616c6c6572206973206e6f7420746865206f776e657281525060200191505060405180910390fd5b600073ffffffffffffffffffffffffffffffffffffffff168173ffffffffffffffffffffffffffffffffffffffff161415612c56576040517f08c379a00000000000000000000000000000000000000000000000000000000081526004018080602001828103825260268152602001806136346026913960400191505060405180910390fd5b8073ffffffffffffffffffffffffffffffffffffffff1660008054906101000a900473ffffffffffffffffffffffffffffffffffffffff1673ffffffffffffffffffffffffffffffffffffffff167f8be0079c531659141344cd1fd0a4f28419497f9722a3daafe3b4186f6b6457e060405160405180910390a3806000806101000a81548173ffffffffffffffffffffffffffffffffffffffff021916908373ffffffffffffffffffffffffffffffffffffffff16021790555050565b600080828401905083811015612d91576040517f08c379a000000000000000000000000000000000000000000000000000000000815260040180806020018281038252601b8152602001807f536166654d6174683a206164646974696f6e206f766572666c6f77000000000081525060200191505060405180910390fd5b8091505092915050565b600080831415612dae5760009050612e1b565b6000828402905082848281612dbf57fe5b0414612e16576040517f08c379a000000000000000000000000000000000000000000000000000000000815260040180806020018281038252602181526020018061369e6021913960400191505060405180910390fd5b809150505b92915050565b600033905090565b600082821115612ea1576040517f08c379a000000000000000000000000000000000000000000000000000000000815260040180806020018281038252601e8152602001807f536166654d6174683a207375627472616374696f6e206f766572666c6f77000081525060200191505060405180910390fd5b818303905092915050565b600081359050612ebb816135de565b92915050565b600081359050612ed0816135f5565b92915050565b600081359050612ee58161360c565b92915050565b600081359050612efa8161361c565b92915050565b600060208284031215612f1257600080fd5b6000612f2084828501612eac565b91505092915050565b60008060408385031215612f3c57600080fd5b6000612f4a85828601612eac565b9250506020612f5b85828601612ec1565b9150509250929050565b600060208284031215612f7757600080fd5b6000612f8584828501612ec1565b91505092915050565b60008060408385031215612fa157600080fd5b6000612faf85828601612ec1565b9250506020612fc085828601612eac565b9150509250929050565b60008060408385031215612fdd57600080fd5b6000612feb85828601612ec1565b9250506020612ffc85828601612ed6565b9150509250929050565b60008060006060848603121561301b57600080fd5b600061302986828701612ec1565b935050602061303a86828701612eeb565b925050604061304b86828701612eeb565b9150509250925092565b60008060006060848603121561306a57600080fd5b600061307886828701612ed6565b935050602061308986828701612ec1565b925050604061309a86828701612eeb565b9150509250925092565b600080600080608085870312156130ba57600080fd5b60006130c887828801612ed6565b94505060206130d987828801612ec1565b93505060406130ea87828801612eeb565b92505060606130fb87828801612eeb565b91505092959194509250565b60006020828403121561311957600080fd5b600061312784828501612eeb565b91505092915050565b6000806040838503121561314357600080fd5b600061315185828601612eeb565b925050602061316285828601612ec1565b9150509250929050565b600061317883836132fc565b60e08301905092915050565b61318d8161355d565b82525050565b61319c8161355d565b82525050565b60006131ad82613523565b6131b7818561353b565b93506131c283613513565b8060005b838110156131f35781516131da888261316c565b97506131e58361352e565b9250506001810190506131c6565b5085935050505092915050565b6132098161356f565b82525050565b6132188161356f565b82525050565b613227816135b6565b82525050565b613236816135b6565b82525050565b600061324960198361354c565b91507f4554482062616c616e63657320696e73756666696369656e74000000000000006000830152602082019050919050565b6000613289601b8361354c565b91507f546f6b656e2062616c616e63657320696e73756666696369656e7400000000006000830152602082019050919050565b60006132c9601e8361354c565b91507f496e73756666696369656e742062616c616e636520666f7220747261646500006000830152602082019050919050565b60e082016000820151613312600085018261338a565b5060208201516133256020850182613184565b506040820151613338604085018261321e565b50606082015161334b6060850182613200565b50608082015161335e608085018261338a565b5060a082015161337160a085018261338a565b5060c082015161338460c085018261338a565b50505050565b613393816135ac565b82525050565b6133a2816135ac565b82525050565b60006020820190506133bd6000830184613193565b92915050565b600060208201905081810360008301526133dd81846131a2565b905092915050565b60006020820190506133fa600083018461320f565b92915050565b6000604082019050613415600083018561320f565b6134226020830184613193565b9392505050565b600060208201905081810360008301526134428161323c565b9050919050565b600060208201905081810360008301526134628161327c565b9050919050565b60006020820190508181036000830152613482816132bc565b9050919050565b600060208201905061349e6000830184613399565b92915050565b600060e0820190506134b9600083018a613399565b6134c66020830189613193565b6134d3604083018861322d565b6134e0606083018761320f565b6134ed6080830186613399565b6134fa60a0830185613399565b61350760c0830184613399565b98975050505050505050565b6000819050602082019050919050565b600081519050919050565b6000602082019050919050565b600082825260208201905092915050565b600082825260208201905092915050565b60006135688261358c565b9050919050565b6000819050919050565b6000819050613587826135ca565b919050565b600073ffffffffffffffffffffffffffffffffffffffff82169050919050565b6000819050919050565b60006135c182613579565b9050919050565bfe5b600281106135db576135da6135c8565b5b50565b6135e78161355d565b81146135f257600080fd5b50565b6135fe8161356f565b811461360957600080fd5b50565b6002811061361957600080fd5b50565b613625816135ac565b811461363057600080fd5b5056fe4f776e61626c653a206e6577206f776e657220697320746865207a65726f2061646472657373496e7375666669656e742062616c616e636520666f72207769746864726177616c496e73756666696369656e742062616c616e636520666f72207769746864726177616c536166654d6174683a206d756c7469706c69636174696f6e206f766572666c6f77546f6b656e206973206e6f7420737570706f7274656420617420746869732074696d65a2646970667358221220b67aa13a65174810237414ee13a419994c3d1e42f49d2331e5906d4c21c49e8564736f6c63430007060033",
  "immutableReferences": {},
  "source": "// SPDX-License-Identifier: MIT\r\npragma solidity >= 0.6.0 < 0.8.0;\r\npragma experimental ABIEncoderV2;\r\nimport \"./Wallet.sol\";\r\n\r\ncontract Dex is Wallet {\r\n    \r\n    using SafeMath for uint256;\r\n\r\n    enum Side {\r\n        BUY,\r\n        SELL\r\n    }\r\n\r\n    struct Order {\r\n        uint id;\r\n        address trader;\r\n        Side side;\r\n        bytes32 ticker;\r\n        uint amount;\r\n        uint price;\r\n        uint filled;\r\n    }\r\n\r\n    uint public nextOrderId;\r\n\r\n    //Ticker => Side => Orderbook\r\n    mapping(bytes32 => mapping(uint => Order[])) public orderBook;\r\n\r\n    function getOrderBook(bytes32 _ticker, Side _side) view public returns(Order[] memory){\r\n        return orderBook[_ticker][uint(_side)];\r\n    }\r\n\r\n    function createLimitOrder(Side _side, bytes32 _ticker, uint _amount, uint _price) public {\r\n    //Perform checks as required in tests \r\n        if(_side == Side.BUY){\r\n            require(balances[msg.sender]['ETH'] >= _amount.mul(_price), \"ETH balances insufficient\");\r\n        }\r\n        if(_side == Side.SELL){\r\n            require(balances[msg.sender][_ticker] >= _amount, \"Token balances insufficient\" );\r\n        }\r\n        \r\n        Order[] storage orders = orderBook[_ticker][uint(_side)];\r\n        orders.push(\r\n            Order(nextOrderId, msg.sender, _side, _ticker, _amount, _price, 0)\r\n        );\r\n        //Bubble sort algorithm \r\n        if(_side == Side.BUY){\r\n            for (uint256 index = orders.length - 1; index > 0; index--) {\r\n                if (orders[index].price <= orders[index - 1].price){\r\n                    break;\r\n                } else if(orders[index].price > orders[index - 1].price){\r\n                    //swap last element and penultimate element\r\n                    Order memory orderToMove = orders[index];\r\n                    orders[index] = orders[index - 1];\r\n                    orders[index - 1] = orderToMove;\r\n                }\r\n            }\r\n        }\r\n        else if(_side == Side.SELL){\r\n            for (uint256 index = orders.length - 1; index > 0; index--) {\r\n                if (orders[index].price >= orders[index - 1].price){\r\n                    break;\r\n                } else if(orders[index].price < orders[index - 1].price){\r\n                    //swap last element and penultimate element\r\n                    Order memory orderToMove = orders[index];\r\n                    orders[index] = orders[index - 1];\r\n                    orders[index - 1] = orderToMove;\r\n                }\r\n            }\r\n        }\r\n        nextOrderId++;\r\n    }\r\n\r\n    function createMarketOrder(Side _side, bytes32 _ticker, uint _amount) public {\r\n            if (_side == Side.SELL){\r\n                //Verify that seller has enough tokens to cover order\r\n                require(balances[msg.sender][_ticker] >= _amount, \"Insufficient balance for trade\");\r\n            }\r\n        //Get opposite orderbook\r\n        Order[] storage orders = orderBook[_ticker][_side == Side.BUY ? 1 : 0];\r\n\r\n        uint totalFilled = 0;\r\n\r\n        //loop through orderbook\r\n        for (uint256 i = 0; i < orders.length && totalFilled < _amount; i++) {\r\n            uint leftToFill = _amount.sub(totalFilled); //amount - totalFilled\r\n            //Identify how much we can fill from order[i]\r\n            uint availableToFill = orders[i].amount.sub(orders[i].filled); //order.amount - order.filled\r\n            uint filled = 0;\r\n            if(availableToFill > leftToFill) {\r\n                filled = leftToFill; //Fills the entire market order\r\n            } else{ //availableToFill <= leftToFill\r\n                filled = availableToFill; //Fills as much as is available in order[i]\r\n            }\r\n            //Update totalFilled\r\n            totalFilled = totalFilled.add(filled);\r\n\r\n            //Modify the order with the amount filled\r\n            orders[i].filled = orders[i].filled.add(filled);\r\n\r\n            //Define cost to buyer\r\n            uint cost = filled.mul(orders[i].price);\r\n\r\n            //Execute the trade for each order and shift balances between buyer and seller\r\n            if (_side == Side.BUY){\r\n                //Verify that buyer has enough ETH to cover the purchase (amount * price)\r\n                require(balances[msg.sender][bytes32('ETH')] >= cost, \"Insufficient balance for trade\");\r\n\r\n                //msg.sender is the buyer\r\n                //Add tokens and subtract ETH from buyer balances\r\n                balances[msg.sender][_ticker] = balances[msg.sender][_ticker].add(filled);\r\n                balances[msg.sender][bytes32('ETH')] = balances[msg.sender][bytes32('ETH')].sub(cost);\r\n\r\n                //Add ETH and subtract token from seller balances\r\n                balances[orders[i].trader][_ticker] = balances[orders[i].trader][_ticker].sub(filled);\r\n                balances[orders[i].trader][bytes32('ETH')] = balances[orders[i].trader][bytes32('ETH')].add(cost);\r\n            } else if (_side == Side.SELL){\r\n                //msg.sender is the seller\r\n                //Transfer ETH from buyer to seller\r\n                balances[msg.sender][_ticker] = balances[msg.sender][_ticker].sub(filled);\r\n                balances[msg.sender][bytes32('ETH')] = balances[msg.sender][bytes32('ETH')].add(cost);       \r\n                //Transfer tokens from seller to buyer\r\n                balances[orders[i].trader][_ticker] = balances[orders[i].trader][_ticker].add(filled);\r\n                balances[orders[i].trader][bytes32('ETH')] = balances[orders[i].trader][bytes32('ETH')].sub(cost);\r\n            }\r\n\r\n        }\r\n        //Loop through the orderbook and remove 100% filled orders (delete elements from an array that is sorted)\r\n        while (orders.length > 0 && orders[0].filled == orders[0].amount) {\r\n            //Remove the top element in the order array by overwriting every element with the next element in the orders list\r\n            //Unbounded and therefore costly\r\n            for (uint256 i = 0; i < orders.length - 1; i++) {\r\n                orders[i] = orders[i + 1];\r\n            }\r\n            //Remove the duplicate at the end of the list\r\n            orders.pop();\r\n        }\r\n    }\r\n}",
  "sourcePath": "C:/Users/Matthew Watman/Desktop/Dev/IOTA/dex/contracts/Dex.sol",
  "compiler": {
    "name": "solc",
    "version": "0.7.6+commit.7338295f.Emscripten.clang"
  },
  "schemaVersion": "3.3.3",
  "updatedAt": "2021-04-05T18:45:37.461Z",
  "networkType": "ethereum",
  "devdoc": {
    "kind": "dev",
    "methods": {
      "owner()": {
        "details": "Returns the address of the current owner."
      },
      "renounceOwnership()": {
        "details": "Leaves the contract without owner. It will not be possible to call `onlyOwner` functions anymore. Can only be called by the current owner. NOTE: Renouncing ownership will leave the contract without an owner, thereby removing any functionality that is only available to the owner."
      },
      "transferOwnership(address)": {
        "details": "Transfers ownership of the contract to a new account (`newOwner`). Can only be called by the current owner."
      }
    },
    "version": 1
  },
  "userdoc": {
    "kind": "user",
    "methods": {},
    "version": 1
  }
}